:020000040800F2
:100000000050002055040008C5960008C796000857
:1000100000000000000000000000000000000000E0
:10002000000000000000000000000000CB96000867
:100030000000000000000000CD960008CF960008E8
:10004000A5040008A5040008EF960008A504000810
:10005000A5040008F79600080797000819970008FC
:10006000A5040008A5040008A5040008E7960008F8
:10007000A5040008A5040008A5040008A5040008BC
:1000800029980008A5040008A50400080000000045
:1000900021980008A5040008A5040008A50400088C
:1000A000A5040008A5040008A5040008D7960008C8
:1000B000A5040008DF96000800000000A504000861
:1000C00002B4714649084900095C49008E4402BCEB
:1000D0007047C04603B47146490840004900095EB4
:1000E00049008E4403BC704703B471464908400080
:1000F0004900095A49008E4403BC7047002934D096
:100100000123002210B488422CD301242407A142E9
:1001100004D2814202D209011B01F8E7E400A142A6
:1001200004D2814202D249005B00F8E7884201D341
:10013000401A1A434C08A04202D3001B5C08224319
:100140008C08A04202D3001B9C082243CC08A0428A
:1001500002D3001BDC082243002803D01B0901D076
:100160000909E3E7100010BC704701B5002000F05A
:100170005FF802BD0029F8D003B5FFF7C1FF0EBC40
:100180004243891A1847C046002941D010B40400E0
:100190004C40A44601230022002900D549420028F2
:1001A00000D5404288422CD301242407A14204D226
:1001B000814202D209011B01F8E7E400A14204D206
:1001C000814202D249005B00F8E7884201D3401A1D
:1001D0001A434C08A04202D3001B5C0822438C083F
:1001E000A04202D3001B9C082243CC08A04202D3A9
:1001F000001BDC082243002803D01B0901D0090999
:10020000E3E710006446002C00D5404210BC704764
:1002100001B5002000F00CF802BDC0460029F7D05F
:1002200003B5FFF7B3FF0EBC4243891A1847C04617
:100230007047C0468446100062468C4619006346EB
:1002400000E0C0461FB512F075FF002801D4002160
:10025000C8421FBD10B512F0CFFE4042013010BDA4
:1002600010B512F067FF002801DB002010BD01204F
:1002700010BDC04610B512F05DFF002801DD002062
:1002800010BD012010BDC04610B512F0EFFE0028D1
:1002900001DC002010BD012010BDC04610B512F0D9
:1002A000E5FE002801DA002010BD012010BDC04687
:1002B000844608006146FFE71FB511F0ECFD0028F9
:1002C00001D40021C8421FBD10B511F08BFD404282
:1002D000013010BD10B511F0DEFD002801DB00205B
:1002E00010BD012010BDC04610B511F0D4FD00288E
:1002F00001DD002010BD012010BDC04610B511F079
:1003000094FD002801DC002010BD012010BDC04676
:1003100010B511F08AFD002801DA002010BD01207F
:1003200010BDC046002B11D1002A0FD1002900D1E9
:10033000002802D00021C943080007B4024802A1E6
:100340004018029003BDC046E9FEFFFF03B46846B3
:1003500001B5029811F0D6FB019B9E4602B00CBC81
:100360007047C046D0400B00D1409C46203AD34055
:10037000184352426346934018437047914003002C
:1003800090409C46203A9340194352426346D340E2
:10039000194370471C2101231B04984201D3000C10
:1003A00010391B0A984201D3000A08391B099842E8
:1003B00001D30009043902A2105C40187047C046FE
:1003C000040302020101010100000000000000001E
:1003D00010B5002903D1FFF7DDFF203002E008004F
:1003E000FFF7D8FF10BDC04602780B78002A03D073
:1003F000013001319A42F7D0D01A70470023C25C15
:100400000133002AFBD1581E7047000010B5064C7E
:100410002378002B07D1054B002B02D0044800E0C5
:1004200000BF0123237010BDAC01002000000000BC
:1004300050540108044B10B5002B03D00349044865
:1004400000E000BF10BDC04600000000B001002069
:10045000505401080D488546002103E00C4B5B58C1
:10046000435004310B480C4B42189A42F6D30B4AC6
:1004700002E0002313600432094B9A42F9D302F0E0
:1004800063FD13F0F7FD08F06FF8FEE70050002061
:10049000007C010800000020AC010020AC0100201D
:1004A00074180020FEE70000F7B506000F00019267
:1004B000EFF3108572B606F039FB0024019BA342CE
:1004C0000EDDA3000220FA58F11806F05DFB0028AB
:1004D00001D10134F2E785F31088044810F024FAC2
:1004E00006F036FB85F31088F7BDC046A45401081A
:1004F0000268024B1A6018687047C046C8010020A5
:1005000070B50500EFF3108472B606F00FFB2800FB
:1005100006F028FB002804D084F31088034810F06C
:1005200003FA06F015FB84F3108870BDC15401086E
:1005300070B5EFF3108572B606F0F8FA094C20009A
:1005400006F010FB002804D085F31088064810F050
:10055000EBF9064B04349C42F1D106F0F9FA85F32D
:10056000108870BD60000808C1540108D800080850
:10057000304B10B51A6D8022196D120492B00A43E7
:100580001A650021342205A813F054FD082304A89D
:100590000493073B099303F017FE002801D007F0EE
:1005A00089F8254C254B264A2360002320006360F0
:1005B000A360E260236105F0CFFB002801D007F0C3
:1005C00079F81421200005F04FFD0123002201934A
:1005D00069460B33200000920293039205F0FCFB66
:1005E000002801D007F066F80021200005F0EAFBA2
:1005F000002801D007F05EF8124A1368022BFCD1E4
:100600000021200005F0E3FB200005F0C1FB0E4BAC
:100610000E481A681A600E4B0360062343600D4BA8
:100620008360C36006F068FB002801D007F042F841
:1006300012B010BD00100240D80100200008014097
:10064000FFFF0000CC010020D0010020100200209C
:1006500000300040FF0F0000002110B50D4805F0EC
:1006600057FC0D490B685A1C0A600C4A5B00D052BB
:100670000B68012B0CD951881288094B891A18680C
:1006800089B2FFF73BFD074B18601A68D2001A6069
:1006900010BDC046D8010020CC010020D4010020AC
:1006A00034000020D001002010B5024805F054FCB1
:1006B00010BDC046D801002010B5044806F048FB24
:1006C000002801D006F0F6FF10BDC0461002002041
:1006D000094A0023110010B51468844202D89468B6
:1006E000844204D801330832152BF5D1FEE7DB0034
:1006F000C918087910BDC04610700108054B5A7919
:10070000002A05D130331A78002A01D101321A703B
:100710007047C0465C020020014B18607047C0461D
:10072000C4020020014B18797047C0465C020020CB
:1007300010B586B001241422002101A813F07AFC20
:100740000323210001AA0C480493029406F0D0FF71
:1007500021000022084807F03DF820000FF01CFFA0
:100760000023210001AA0448029306F0C1FF0620DD
:100770000FF012FF06B010BD0004005070B5060067
:100780008D180C00A0208021C0050022090207F06E
:1007900021F88020304307F08BFAAC4207D180214A
:1007A000A02001220902C00507F014F870BD2078CE
:1007B00007F07EFA0134F0E707B56B46D9710122E4
:1007C000D91DFFF7DBFF07BD114B70B511499860CC
:1007D0000500FFF7CFFC104B0802C0180D49FFF7CA
:1007E0008DFC0C4904002800FFF788FC0002241847
:1007F000210C0620C9B2FFF7DFFF210A0720C9B28A
:10080000FFF7DAFF0820E1B2FFF7D6FF70BDC04660
:100810005C020020093D0000841E000070B5060047
:100820008D180C00A0208021C0050022090206F0CE
:10083000D1FF7F20304007F03BFAAC4207D1802146
:10084000A02001220902C00506F0C4FF70BD0020EF
:1008500007F02EFA20700134EFE713B56B46DC1D6C
:1008600001222100FFF7DAFF207816BD70B50920BC
:10087000FFF7F3FF05000620FFF7EFFF0400072056
:10088000FFF7EBFF06020820FFF7E7FF1B4A2304F0
:100890003343C4B2544303431B0A5A4380340021F8
:1008A0000920240AA418FFF787FF3B20FFF7D5FF94
:1008B00040210143C9B23B20FFF77EFF20263B20A9
:1008C000FFF7CBFF3042FAD10D48FFF77DFF3B2009
:1008D000FFF7C3FF40210143C9B23B20FFF76CFF84
:1008E00020263B20FFF7B9FF3042FAD1290009202A
:1008F000FFF762FF2000FFF767FF70BD093D0000B2
:1009000000A1BC33F0B587B00191002804D00128C4
:1009100055D0002007B0F0BD694C2720258CFFF78B
:100920009CFFF82398430130401913F08FF9E31C22
:10093000DB7F0022002B3ED0002311F0F7FD0600E4
:1009400030200F00FFF789FFF9230022984300238E
:10095000002800D05B4B3000390011F0E7FD0600A5
:1009600001980F0013F072F902000B0030003900FB
:1009700011F0DCFD631DDB7F0022002B1DD08023E6
:10098000DB0511F0D3FD00224F4B12F037FC0600BF
:10099000E0690F0013F082F902000B00300039000B
:1009A00012F090F80022494B12F028FC14F000FDE0
:1009B00011F08CF8AEE7434BBFE70023E1E7404D71
:1009C0006B6C073B022B78D8414ADB00D218C0CAB7
:1009D0000120AC6CA04013F039F902000B0030008C
:1009E000390012F06FF802000B000020354912F0B8
:1009F00069F82B00029003914E33188813F026F902
:100A00000022344B11F092FD029A039B12F0F6FB88
:100A1000019B04900591DA002B0052331B78A10052
:100A20001B015B1A0021503528781C33884200D006
:100A30001431D018401A13F031F9274B06001B78F7
:100A40000F005B00E01A800013F028F902000B0091
:100A50003000390012F036F814F08CFB06000F005D
:100A6000174D4D352878043013F0F0F832003B0074
:100A700012F0C4FB0022002304000D00FFF704FC69
:100A8000002801D1002400250022200029000E4B5F
:100A900011F04CFD029A039B12F0B0FB049A059BE7
:100AA00011F044FD0022094B12F0A8FB0B4A0C4B3D
:100AB00011F03CFD14F0EAFB7AE70026002787E7F7
:100AC0005C0200200000F03F0000204000408F400A
:100AD000F86F010800001140A80200202B8716D9EA
:100AE000CEF7EF3F10B5002804D001280AD001202E
:100AF000404210BD1120FFF7B0FE4008C0B2404296
:100B000000B2F6E7064B074A9B681B20934203D9C5
:100B1000FFF7A3FE9D38F3E7FFF79FFEA438EFE74A
:100B20005C02002040DD4A1F70B504000B4D01201F
:100B30002B681B6898472B6800201B6998472B6817
:100B400020005B6998470120FFF787FE0723984341
:100B50000443E1B20120FFF72FFE70BDC402002064
:100B600010B506480FF014FE05480FF011FE0120E5
:100B7000FFF7DAFF0022034B1A7110BD3402002088
:100B8000480200205C02002070B5041E11D1012033
:100B9000FFF763FEF82101400120FFF70DFE064D2F
:100BA00001202B681B6998472B6820001B68984719
:100BB00070BDFFF7B9FFFBE7C402002010B509487C
:100BC0000FF0E6FD08480FF0E3FD0020FFF7DCFF23
:100BD000064B00201B681B6898470022044B1A71C3
:100BE00010BDC0463402002048020020C40200208C
:100BF0005C020020F8B5060075480FF0C9FD754C81
:100C00006579002D2ED00027012D50D123005533BA
:100C10001B7841273320002B69D0FFF71EFE384395
:100C2000C1B23320FFF7C8FD19213B20FFF7C4FDF7
:100C3000636C3120082B00D9B1E0FFF70EFE7F2155
:100C400001403120FFF7B8FD30200021FFF7B4FD4F
:100C5000606C08285ED8FFF733FA547A81888F9643
:100C60009D9D9D00E31D4020DF7FFFF7F6FD0323E0
:100C70000C21184001434020FFF79EFD4120FFF763
:100C8000ECFD3F2149420143C9B24120FFF794FDE9
:100C90003520FFF7E2FD3F23184023003E33187054
:100CA0001E210D20FFF788FD2586A58765878022F8
:100CB00000214948520013F0BDF901232371002E91
:100CC00006D0464831000FF08FFD44480FF0F4FC89
:100CD0006379002B00D073E00520FFF725FF404823
:100CE000E16A0FF081FD3E480FF0E6FCF8BDFFF72A
:100CF000B4FDB8430543E9B23320FFF75DFD1D2184
:100D000093E72F204821FFF757FDA068354BC01807
:100D1000FFF75AFD230056331F78230053331B7807
:100D2000002B44D01D211120FFF746FD4020FFF786
:100D300094FD332101404020FFF73EFD00210F20AC
:100D4000FFF73AFD00210D20FFF736FDAFE72F201A
:100D50004421FFF731FDA068234BD8E72F20442121
:100D6000FFF72AFDA068214BD1E72F204421FFF790
:100D700023FDA0681E4BCAE72F204421FFF71CFD6E
:100D8000A0681C4BC3E72F204421FFF715FDA06886
:100D9000194BBCE740212F20FFF70EFDBAE7FFF704
:100DA0005CFD802149420143C9B23120F4E71F2193
:100DB0001120FFF701FD4020FFF74FFD3F21B9E76C
:100DC0000520002F00D10620FFF7AEFE8EE7C046BB
:100DD000480200205C020020C802002034020020EB
:100DE00020020020821E0000B4280000043D000004
:100DF0005E510000127A0000C6A2000070B5040027
:100E000026480FF0C5FC210025480FF0EDFC254CCD
:100E10006379002B0AD0012B23D0022320482371B1
:100E20000FF04AFC0320FFF77FFE70BD4020FFF764
:100E300014FD03231021184001434020FFF7BCFCA0
:100E40004120FFF70AFD3E2101404120FFF7B4FC9D
:100E50003520FFF702FD3F23184023003E33187072
:100E6000DBE7230053331B78002B0ED0F521112034
:100E7000FFF7A2FC4020FFF7F0FC332301004020E5
:100E800019400143FFF798FCC7E7F7211120FFF74E
:100E900093FC4020FFF7E1FC3F23EFE73402002002
:100EA000480200205C02002070B50B4C6379012BD6
:100EB00010D1FA211120FFF77FFC4020FFF7CDFC75
:100EC0000325A843C1B24020FFF776FC0720257117
:100ED000FFF72AFE70BDC0465C02002010B504007A
:100EE0000120FFF7BAFC174BC009C0B25C71844205
:100EF00000D110BD012C12D0FFF760FE0120FFF7DA
:100F0000ACFC7F2101400120FFF756FC002140206E
:100F1000FFF752FC30214120FFF74EFCE9E7FFF7D5
:100F20004DFE2000FFF799FC802149420143C9B2E0
:100F30002000FFF741FC00214020FFF73DFC00218D
:100F4000E9E7C0465C0200201A4B70B51A491860E8
:100F50001A480FF0A9FB1A4817490FF0A5FB1649CC
:100F600018480FF0A1FB184D01202B681B6898470B
:100F7000FFF7DEFBFFF77AFC0020FFF705FE2B688A
:100F800012489B689847124C124E2078FFF7A6FF34
:100F9000A17860780334FFF70FFCB442F5D100204C
:100FA000FFF79CFF00220C4B1A712B685B68984777
:100FB000023070BDC8030020ED1C0008480200206C
:100FC0003402002020020020C40200200000002083
:100FD000C0700108F07001085C020020F8B50E0036
:100FE00017001D000400FFF779FF3000FFF7ECFB4E
:100FF0000520FFF799FD01200FF0CEFA0FF005FC58
:10100000060030000FF007FCA84204D30124FFF7CC
:10101000D5FD2000F8BD2000FFF764FDB842F0DDEB
:101020000024F4E770B500240120FFF757FFFF21EB
:101030001120FFF7C1FB0520FFF776FD25000126F3
:1010400030000FF0A9FA2C20FFF707FC3040A04039
:1010500001340543202CF3D1FFF7B0FD280070BD0B
:10106000F0B58DB0099312AB160004CB04001B88B9
:101070000892019314AB1B880CAA059315AB1B783F
:101080000D00029316AB1B78039317AB1B780493E8
:1010900018AB1B780A9319AB1B780B9338239F5C12
:1010A00004339B5C0693FFF719FF002C04D0012C3E
:1010B00000D184E00DB0F0BDA94C089B029AA36159
:1010C000E31CDA77039A231DDA77049A631DDA7733
:1010D000069AA31DDF77E31DDA77019BE66123847F
:1010E0003000656112F0DAFD02000B0006000F000F
:1010F00000209C4911F0E6FC00229B4B12F07EF888
:1011000006900791059812F0A1FD02000B000698C9
:10111000079912F073F80022944B12F06FF810F058
:10112000D5FC32003B00E0629149002011F0CAFC7E
:1011300010F0CCFC0400010AC9B20220FFF73CFB0E
:10114000E1B20320FFF738FB2800FFF7C1FA0100E6
:101150001220FFF731FB0898FFF7BAFA01001320BD
:10116000FFF72AFB019B2520190AFFF725FB6B4699
:1011700026201979FFF720FB029B0399002B00D151
:10118000FF213220FFF718FB3020FFF766FB01211B
:10119000029B5940049BC9011B0119436F2318404E
:1011A0000143C9B23020FFF707FB3120FFF755FBA1
:1011B000402101433120C9B2FFF7FEFA7AE7022D40
:1011C00000D9FEE7664B09991A004D3211701A00DA
:1011D00001994E3211801A000299503211701A0092
:1011E0000399513211701A000499523211701A0089
:1011F0000A99533211701A000B99543211701A0067
:10120000553207351770069A5D649E645633340074
:101210001A70062E00D381E00624072D00D082E04C
:101220002200002301210B3A91425B414C4A514F6D
:101230001D2008923B70FFF710FB099B1D205900F1
:10124000029B240119432B011943C9B2FFF7B4FAD9
:101250001E20FFF702FB059B9905049B890F9B004D
:1012600019432143082420400143C9B21E20FFF73F
:10127000A3FA2620FFF7F1FA3978A043C900014309
:10128000C9B22620FFF798FA6B461F20197DFFF799
:1012900093FA019B2020190AFFF78EFA6B46212052
:1012A0001979FFF789FA029B002B03D022200399BA
:1012B000FFF782FA089B53331B78002B0FD0442092
:1012C000FFF7CBFA802149420143C9B24420FFF71E
:1012D00073FA089B242054331978FFF76DFA092D0F
:1012E0002FD1089A244B9268022136209A4224D9A1
:1012F000FFF762FA64213A20FFF75EFA07243120F3
:10130000062E21D8FFF7A9FA0521A0430143C9B24F
:101310003120FFF751FA0C2137204DE70C2E00D871
:101320007BE70C2479E72A00083A53425A410B2301
:10133000B3429B415B42134078E7FFF73DFA7F21C0
:10134000D9E703213620D7E7FFF787FA0321A04327
:101350000143C9B23120FFF72FFA0A21DCE7C0466A
:101360005C0200200000F03F0000204000408F4061
:1013700080847E41A802002040DD4A1FF0B50D00A8
:1013800089B01F000EAB10CB06001B7806920393AA
:1013900010AB1B88009311AB1B78019312AB1B7829
:1013A000029313AB1B78049314AB1B78079315AB14
:1013B0001B780593FFF792FD874B28001B68DB68BD
:1013C0009847002E03D0012E61D009B0F0BD834BA9
:1013D000069A01991A61009A1D731A84DA1CD17752
:1013E00002995A1DD17705999A1DD177169ADC6119
:1013F0009A6206985F6112F051FC0022784B11F05E
:1014000061FB10F063FB0500010AC9B20420FFF77D
:10141000D3F90520E9B2FFF7CFF9200012F03EFC26
:1014200002000B0000206F4911F04CFB10F04EFB46
:101430000400010AC9B20220FFF7BEF90320E1B29D
:10144000FFF7BAF9009B2520190AFFF7B5F96B469B
:1014500026201978FFF7B0F93020FFF7FEF90121B7
:10146000019B5940029BC9011B0119436F2318407E
:101470000143C9B23020FFF79FF93120FFF7EDF9A2
:10148000402101433120C9B2FFF796F99DE7564A42
:10149000524B1570022F00D9FEE71A0003994D3206
:1014A00011701A0000994E3211801A0001995032C1
:1014B00011701A000499533211701A0007995432AE
:1014C00011701A000299523211701A0005995532A2
:1014D0001170169AFE1D25005E649C649A65062CA8
:1014E00061D20625072E62D12A00002301210B3A82
:1014F00091425B413D4A394F1370049B002B0FD042
:101500004420FFF7AAF9802149420143C9B244208F
:10151000FFF752F93B00543324201978FFF74CF9B8
:101520001D20FFF79AF9039B36015900019B1D20EE
:101530000B4319003143C9B2FFF73EF91E20FFF7F4
:101540008CF9029B2D019B001D430B231840054382
:10155000E9B21E20FFF730F92620FFF77EF90823B5
:101560004C3739789843C9000143C9B22620FFF7A8
:1015700023F9009B2020190AFFF71EF96B46212052
:101580001978FFF719F907253120062C19D8FFF72C
:1015900064F90521A8430143C9B23120FFF70CF9D2
:1015A0000C21372070E70C2C9CD90C259AE73200CF
:1015B000083A53425A410B23A3429B415B421340DA
:1015C00098E7FFF74AF90321A8430143C9B2312044
:1015D000FFF7F2F80A21E4E7C40200205C020020D1
:1015E00080844E4080847E419C020020A80200201E
:1015F00030B5FA248BB0A40054430D00FFF7E4F893
:1016000005230293962300205B0102002900079026
:1016100006900590049003900190009308940300B5
:10162000FFF7ACFE3120FFF718F94025A843C1B2FF
:101630003120FFF7C1F82800F021FFF7BDF8A02105
:101640004120FFF7B9F8210006480FF0CDF802223B
:10165000054B04481A710FF02FF80320FFF764FAC6
:101660000BB030BD480200205C02002070B52B4C4E
:101670002579012D02D0022D47D070BD6379002B52
:1016800017D0AB42F9D1533423780221002BF4D088
:101690001220FFF791F8224B1B68002BEDD05C69FC
:1016A000002CEAD01C20FFF7D8F83F231840A047B1
:1016B000E3E72300260030331D7031363378002BEA
:1016C000DBD118480FF064F811203570FFF7C5F82A
:1016D000230040083233404218701B20FFF7BDF84A
:1016E00005021C20FFF7B9F80F4B0543C0B2584361
:1016F0002D0A6B438030000AC01860630C20FFF78E
:10170000ACF8383440092070B7E76379012BB4D1C5
:1017100053342378002BB0D02900B9E75C020020B5
:10172000C803002020020020093D000070B5124BC4
:101730005C79012C12D11220FFF78FF805000F4EB3
:10174000254020420BD005211220FFF735F83368E1
:10175000002B03D09B692000002B0BD170BD04210E
:101760001220FFF729F83368002BF7D09B69002B74
:10177000F4D028009847F1E75C020020C80300205D
:1017800010B50A0001000020FEF7F8FF10BD0000B0
:10179000F7B56B46374CD9716579DE1D0700002D12
:1017A00035D00020012D52D1230055331B78332032
:1017B000002B54D0FFF751F841239843C1B2332096
:1017C000FEF7FAFF19213B20FEF7F6FF23003578DC
:1017D0006433290022201D70FEF7EEFF00210E2049
:1017E000FEF7EAFF00210D20FEF7E6FF0120FFF7DC
:1017F00034F8F823984304D1FFF7B2F901200EF032
:10180000CBFE38002900FFF7BBFFA06D1FE0A587C6
:101810003578E31C6587DB7F002B1BD1012130006D
:10182000FFF7AEFF6B1E3F2B05D92A003900124887
:101830000FF025F82025260038003F3629003570A6
:10184000FFF79EFF3378A28FA06A9B18A387FFF74C
:10185000D5FAF7BD29003220FEF7AEFFE2E7FEF72A
:10186000FCFF412398430543E9B23320FEF7A4FF70
:101870001D21A8E75C020020C802002010B50A0064
:1018800001000020FEF7CAFF10BD0000F0B585B0D2
:1018900002ABDD1D0023AC4C2B702379012B04D04F
:1018A000022B00D127E105B0F0BD6379002B24D0D5
:1018B000012BF8D140211220FEF77EFF1220FEF707
:1018C000CCFF202128702B78A04EA14D0B4200D1D7
:1018D0008FE01220FEF770FF230056331B78002B99
:1018E00000D1237130000EF053FF2B68002BDAD0AB
:1018F0001B69002BD7D09847D5E7631DDB7F934A40
:10190000944E934F0192002B32D03F20FEF7A5FF5B
:1019100028702B789B072BD40B213E20FEF74CFF21
:1019200010213F20FEF748FF01980EF031FFE31D24
:10193000DD7F002D0FD130000EF02AFF25713B68AE
:10194000002B03D01B69002B00D09847002323866F
:10195000A3876387A7E70D20FEF77FFF40210143A0
:10196000C9B20D20FEF728FF30000EF0A5FEE6E715
:10197000618FA08F0B00784D034309D1E31CDB7FFF
:10198000002B24D101217548FFF778FFA08F618FCC
:10199000091AC9B22818FFF771FF638F0198A3874E
:1019A0000EF0F6FEE31DDB7F002B15D13000237116
:1019B0000EF0EEFE3B68002BC8D09E68002EC5D00E
:1019C000322200232800A256618FB047BEE73220A2
:1019D000FEF743FF6087D9E70D20FEF73EFF402169
:1019E0000143C9B20D20FEF7E7FE30000EF064FEA1
:1019F000E0E71920FEF731FF270040B202306037E0
:101A0000801038701A20FEF728FF0023FB5602B220
:101A1000A76853491211002B60DA8F425CD99D3BB5
:101A2000C318D21823001320623327001A80FEF750
:101A300014FF643738701020FEF70FFF01000D20EF
:101A4000FEF7BAFE3978444F3800FFF717FF23003E
:101A500056331B78002B00D1237130000EF098FE16
:101A60002B68002B00D11EE79D68002D00D11AE7DE
:101A70002200230062320021525E210060331B7875
:101A800064315BB238000978A847364D2B78002BBB
:101A90001FD1354B1B78002B08D00EF0B6FE060088
:101AA000310032480EF040FF0028F9D1304E337833
:101AB000002B1AD02F480EF037FF0028FAD13070D3
:101AC000230062330021595E2B480EF02DFF0028C1
:101AD000F6D100232B70E6E6A43BA1E78F4202D9A2
:101AE0009D3812189EE7A438FBE724480EF01CFF2F
:101AF0000028FAD1E4E722480EF04AFE6379012B70
:101B000003D108211220FEF757FE00232371104B4A
:101B10001B68002B00D1C6E61B68002B00D1C2E673
:101B20009847114B1B78002B08D00EF06EFE040076
:101B300021000E480EF0F8FE0028F9D111480EF0F1
:101B4000F3FE0028FAD1AEE65C0200203402002049
:101B5000C803002020020020C802002096020020B6
:101B600040DD4A1F6B120020E70A0020C66E010804
:101B70006E120020E3540108FA540108F1540108E0
:101B8000480200200555010870B53A4C2579012D11
:101B900002D0022D58D070BD6379002B25D0AB4206
:101BA000F9D135480EF0F4FD80211220FEF704FE35
:101BB00000232371314B1B68002BECD0DB68002B1A
:101BC000E9D098472E4B1B78002B08D00EF01DFE55
:101BD000040021002B480EF0A7FE0028F9D12A4866
:101BE0000EF0A2FE0028FAD1D5E728480EF0D0FD6D
:101BF000638FA28F13439BB2002B07D1E31CDB7FC3
:101C0000002B17D129002248FFF738FE25003E356A
:101C1000A28F638F1F48297810189B1A8B420EDB06
:101C20000139C9B2FFF72AFEA28F2B78013A9B181F
:101C3000A387B0E73220FEF710FE6087E6E7D9B24F
:101C4000FFF71CFE638FF3E76379002BA3D1250018
:101C50003F35A28F638F0F48297810189B1A8B424B
:101C600004DDFFF78DFD2B78A28FE0E7D9B2FFF7F7
:101C700087FDE7E75C02002034020020C803002053
:101C8000E70A0020C66E01080E5501082002002058
:101C900096020020C802002070B504000D00FFF776
:101CA0001DF9002C02D0012C09D070BD054BDB7F43
:101CB000A342FAD129003220FEF77EFDF5E7290084
:101CC0002320F9E75F02002010B504000120FFF790
:101CD00005F9054B34211C70002C00D1122139204C
:101CE000FEF76AFD10BDC046B802002070B52B4C4F
:101CF0002379012B02D0022B2CD070BD6379002BED
:101D00001AD10B213E202386A3876387FEF754FD5B
:101D100010213F20FEF750FDE31DDB7F002B14D088
:101D20000D20FEF79AFD40210143C9B20D20FEF7B8
:101D300043FD1B480EF0C0FC1A4B1B68002BDCD087
:101D4000DB68002BD9D09847D7E7154823710EF0F0
:101D50001FFDF1E7FEF7ECFCFEF788FD0020FEF723
:101D600013FF114D114E2878FFF7B8F8A97868785D
:101D70000335FEF721FDB542F5D10020FFF7AEF89F
:101D800023005C331878FFF79FFF00232371054B76
:101D90001B68002BB1D05B68D3E7C0465C02002013
:101DA00020020020C8030020C0700108F070010864
:101DB000034B10B51B685B689847023010BDC046E6
:101DC000C40200200023022130B587B005930D4BDB
:101DD0002024DA6A01250A43DA62DB6A0A480B40EA
:101DE0000093009B112301A902930E3B04930194DD
:101DF000039502F0A7FF2A002100034803F0E0F852
:101E000007B030BD00100240000400507FB50C2226
:101E1000002103A812F00EF90221094B0948DA6AE1
:101E20000A43DA62DB6A0B400093009B202301A97E
:101E300001931D3B029302F085FF07B000BDC04631
:101E4000001002400004005030B5102587B02A0071
:101E50000021040002A812F0EDF80121124BDA6A09
:101E60000A43DA62DB6A01950B400093009B022C67
:101E700016D0032C16D08C4201D10C4B0293A0201B
:101E800001A9C00502F05EFF002C07D00720002248
:101E9000022102F01BFF072002F040FF07B030BD17
:101EA000034BEBE7034BE9E7001002400000311061
:101EB000000021100000111010B586B01022002182
:101EC000040002A812F0B6F80221134BDA6A0A43A2
:101ED000DA62DB6A0B400093009B80231B020193B4
:101EE0008C4215D0032C15D0012C01D10B4B029341
:101EF0000B4801A902F026FF002C07D00720002282
:101F0000022102F0E3FE072002F008FF06B010BD38
:101F1000044BECE7044BEAE70010024000003110EC
:101F20000004005000002110000011107FB51022A5
:101F3000002102A812F07EF801210A4BA020DA6AE3
:101F4000C0050A43DA62DB6A01AA0B4000938021D4
:101F5000009B022349010191039305F0C9FB07B0DF
:101F600000BDC046001002407FB50C22002103A82E
:101F700012F060F801210A4BA020DA6AC0050A437A
:101F8000DA62DB6A01AA0B4000938021009B0323E5
:101F900049010191029305F0ABFB07B000BDC046BB
:101FA0000010024010B586B00C22002103A812F0E8
:101FB00041F802210C4B1024DA6A0C480A43DA6219
:101FC000DB6A01940B400093009B012302935B1892
:101FD00001A9049302F0B6FE00222100034802F09A
:101FE000EFFF06B010BDC0460010024000040050D4
:101FF0007FB50C22002103A812F01CF80221094B26
:102000000948DA6A0A43DA62DB6A0B400093009BF4
:10201000102301A901930D3B029302F093FE07B038
:1020200000BDC046001002400004005000B589B059
:10203000012813D102211B4B1B48DA6A0A43DA62DA
:10204000DB6A0B400093009B08230393002303A942
:102050000493059302F076FE09B000BD022812D168
:102060000121104BDA6A0A43DA62DB6A0B40019302
:10207000019B80239B00A0200393002303A90493CA
:102080000593C005E6E70328E6D10121054BDA6A8E
:102090000A43DA62DB6A0B400293029B8023DB0077
:1020A000E9E7C046001002400004005000B589B0C6
:1020B000012812D102231C4AD16A1943D162D26A83
:1020C00004901A400092009A08221848039206933E
:1020D00003A902F037FE09B000BD022811D1012387
:1020E000114AD16A1943D162D26A04931A4001920B
:1020F000019A8022920003920690A02003A9C005B5
:10210000E7E70328E7D10123074AD16A1943D162DF
:10211000D26A04931A400292029A8022DB18D200FB
:1021200003920693E9E7C046001002400004005005
:1021300010B5040001280CD1FFF7B8FF00220821D8
:10214000144802F03DFF22000821124802F038FF37
:1021500010BD02280ED1FFF7A9FF8021A020002288
:102160008900C00502F02CFF802101228900A020F7
:10217000C005EBE70328EBD1FFF798FF8021A020F3
:102180000022C900C00502F01BFF80210122C90006
:10219000EDE7C0460004005070B50400012821D1CD
:1021A000FFF744FF00260821344802F003FF051E14
:1021B00006D0C82E01D1200070BD0136F6B2F2E77C
:1021C000C82EF8D008212D4802F0F4FE002801D1D5
:1021D000F02D04D1F03D6B425D41ECB2EBE70135EF
:1021E000EDB2EFE7022825D1FFF720FF002580217F
:1021F000A0208900C00502F0DDFE041E06D0C82D17
:1022000001D10124D7E70135EDB2F0E7C82DF8D0B0
:102210008021A0208900C00502F0CCFE002801D159
:10222000F02C04D1F03C63425C41E4B2C3E70134DA
:10223000E4B2EDE703281ED1FFF7F8FE0025802168
:10224000A020C900C00502F0B5FE041E04D0C82DB0
:10225000D7D00135EDB2F2E7C82DD2D08021A02031
:10226000C900C00502F0A6FE0028DBD1F02CD9D0B1
:102270000134E4B2F2E700249DE7C04600040050B8
:1022800010B50400012813D1FFF710FF0821002228
:10229000194802F095FE2000FFF7C8FE08211648F5
:1022A00002F088FE013843425841C3B2180010BD05
:1022B000022810D1FFF7FAFE8021A0208900002219
:1022C000C00502F07DFE2000FFF7B0FE80218900EE
:1022D000A020C005E4E70328E8D1FFF7E7FE80214E
:1022E000A020C9000022C00502F06AFE2000FFF70E
:1022F0009DFE8021C900EBE70004005070B500246A
:10230000050026002800FFF7BBFFA040013406436C
:10231000F6B2082CF6D1300070BD0000080010B5F0
:10232000012911D1FFF7C2FE0824002208211E480E
:10233000013C02F045FEE4B2012208211A4802F0F5
:102340003FFE002CF1D110BD022915D1FFF7AEFEE2
:1023500008248021A02000228900C00502F030FE60
:102360008021A020013C01228900C005E4B202F0D6
:1023700027FE002CEDD1E6E70329E4D1FFF796FE16
:1023800008248021A0200022C900C00502F018FE08
:102390008021A020013C0122C900C005E4B202F066
:1023A0000FFE002CEDD1CEE70004005010B5040064
:1023B000FFF7BEFE2000FFF7EFFE2100CC20FFF765
:1023C000ADFF10BD10B50400012803D12000FFF7B8
:1023D000AFFE03E00228F9D00328F7D02000FFF772
:1023E000DBFE10BD00B589B0012814D102211D4BC0
:1023F0001D48DA6A0A43DA62DB6A0B400093009BED
:1024000008230393053B0493002303A9059302F0DB
:1024100099FC09B000BD022814D10121114BDA6AE0
:102420000A43DA62DB6A0B400193019B80239B0025
:102430000393FE3BFF3B04930023A020059303A9D5
:10244000C005E4E70328E4D10121064BDA6A0A4318
:10245000DA62DB6A04900B400293029B8023DB006C
:102460000393E9E70010024000040050F0B50200B9
:1024700041180126002073278A4200D1F0BD0824AC
:10248000157803006B4033405B42BB434008584023
:10249000013CC0B26D08002CF3D10132ECE7000022
:1024A000F0B503230026040087B0019300962000B6
:1024B000FFF788FF051E56D12000FFF777FF2100A8
:1024C0004420FFF72BFF314806F08AFE2000FFF77B
:1024D0006DFF2100BE20FFF721FF2000FFF70EFF58
:1024E00003AF78550135092DF7D108213800FFF7E2
:1024F000BDFF3B7A83422DD10023F85E002817DA16
:10250000404211F0A3FB0022214B10F077FE11F0A6
:1025100027FC051C00262000FFF764FF002E05D1D4
:102520001C49281CFDF7D6FEB04225D01A4D29E0E3
:1025300011F08CFB0022194B10F060FE11F010FC22
:102540001749051CFDF7C0FE0028E3D00136F6B29E
:10255000022EDFD0019B013BDBB20193002B07D1A0
:1025600001260F4DD7E7009B0133DBB20093F1E763
:10257000009B032B9BD1F3E70A49281CFDF7BEFE05
:102580000028D3D1281C07B0F0BDC04602030000CC
:102590000000B0BF00005CC233CB4C450000B03F30
:1025A0000000AA420000FA4210B50E4B0E4C236008
:1025B0000E4B200063600123E36000232361A361CD
:1025C000E3612362F033A3600E33636103F070FFB5
:1025D000002801D005F06EF80021200004F082FAF6
:1025E00010BDC04600540040CC030020563EA11050
:1025F000F0B5FA27002401260D4B87B01B7805ADF6
:102600002B70BF000123C5211A000A4802970196CA
:10261000009504F00BF92B78013433402B70A4B2F1
:10262000002B02D0044B9C42ECD1200007B0F0BD3F
:102630001A550108CC03002010270000F0B589B01E
:102640006A46224B04AD1B7805AF2B70204BFA264F
:102650001B7801243B701F4BB6001B7813761E4B72
:102660001B781377FFF7C4FF1C4800950500230073
:102670000222C4210296019404F01CF8FFF7B8FF6F
:1026800023000422C421280002960194009704F03C
:1026900011F8FFF7ADFF06AB1222C421009328000A
:1026A00023000296019404F005F8FFF7A1FF07ABA1
:1026B0001C22C4210093280023000296019403F0F9
:1026C000F9FFFFF795FF09B0F0BDC0461C550108A2
:1026D0001E550108205501081B550108CC03002098
:1026E000F0B5FA2501241D4B89B01B7805AFAD006C
:1026F0003B70FFF77DFF23000022C421184802959C
:102700000194009703F0D6FFFFF772FF154B984234
:1027100022D806AF23000F22C5210295104801944C
:10272000009704F083F8029507AD23001022C5211D
:102730000B480194009504F079F83A782B7812024E
:102740009B18FA229BB200201201934202D80A2061
:10275000584380B209B0F0BD0348FBE72255010899
:10276000CC0300200E270000FFFF00001FB5154C12
:1027700005222100684611F0A3FC611D062202A873
:1027800011F09EFC07F048F907F060F901220E49AC
:102790000E4800F03BFEFA20800006F021FD69465D
:1027A00005220B4B094801F001FA322006F018FD12
:1027B0000622074B02A9054801F0F8F9322006F07D
:1027C0000FFD1FBD68540108B3080020B8080020A1
:1027D000FFFF000037B5174B0193FFF7C7FF164BFC
:1027E000042201A9154801F0E1F90122144C154910
:1027F0001248227000F00AFEFA20400006F0F0FCB9
:102800000023237007F04CF90F4B1A785A2A01D095
:1028100000203EBD5A78052AFAD19A78112AF7D1BC
:10282000DA78002AF4D11879703843425841C0B29E
:10283000EFE7C0465A04116FFFFF0000B808002000
:102840001F040020B30800201804002037B5072219
:1028500000210400684611F0EDFB07F0F7F8FA20BC
:10286000800006F0BDFCFA216D466846C90007F0FD
:10287000B1F907F015F968782B7829790343A8781E
:102880006A790343E87803430B43A879134303436E
:10289000DBB2002B04D1084823606060A36037BD21
:1028A0000A2328881202434352189BB22360D31094
:1028B000013B6888FF3BF0E7FEFF00007FB5102278
:1028C000002102A811F0B6FB02210B4BA020DA6A0E
:1028D000C0050A43DA62DB6A01AA0B400093009B41
:1028E000802101230901039302330191049304F031
:1028F000FFFE07B000BDC046001002407FB50C22AD
:10290000002103A811F096FB01230A4A0A48D16A64
:102910001943D1628021D26A49011A400092009A7B
:10292000029301AA02330191049304F0E1FE07B07F
:1029300000BDC04600100240000400507FB50C22CC
:10294000002103A811F076FB02210A4BA020DA6ACD
:10295000C0050A43DA62DB6A0B400093009B8023C8
:102960001B010193032301A9029302F0EBF907B0C5
:1029700000BDC046001002407FB50C22002103A814
:1029800011F058FB0121094B0948DA6A0A43DA625F
:10299000DB6A0B400093009B80235B0101930323C0
:1029A00001A9029302F0CEF907B000BD0010024069
:1029B0000004005002230D4A10B5916B0C480B43E4
:1029C00093630C4B0C4A03601F2343600023C260D7
:1029D0008360036103F046F9002801D004F06AFE29
:1029E00000220521102002F071F910BD00100240F4
:1029F0002004002000040040E7030000034B98423D
:102A000003D1034A13880133138070472004002048
:102A1000580400200300F7B504000C33009300268F
:102A20008021314D314F2B6801225E6249013048CF
:102A30003E8002F0C5FA012006F0D2FB8021320070
:102A40002B48490102F0BCFA0DF0DFFE06008021A0
:102A5000A0200901C00502F0ADFA002834D00026FC
:102A6000280003F019F90DF0D0FE01908021A0207C
:102A70000901C00502F09EFA00282DD1280003F0BC
:102A800015F92B685B6A012E1DD0FA203A88800068
:102A900050439BB2C01811F0D9F8164A164B10F0EB
:102AA000ADFB0022154B10F0A9FB154B002210F0D6
:102AB000A5FB0FF00BF82080322006F091FB009B65
:102AC00002349C42ABD1F7BD30000DF0A4FE0D4B9B
:102AD0009842BCD90126C3E701980DF09CFE094B32
:102AE0009842C3D90126C9E72004002058040020D9
:102AF00000040050006F8104C58FA13F0000E03F3B
:102B000000002440E7030000020030B50A32030051
:102B100001211C885D88AC4202D900211D805C80A7
:102B200002339342F5D1002902D1023A8242EED11A
:102B300030BD10B50400FFF7E7FFE2886388208905
:102B40009B18A2889B18C018800880B210BD000096
:102B50001FB58021A0200901C00502F02BFA041E38
:102B600002D00B4804B010BD0A4B1B888342F8D03A
:102B700001A8FFF74FFF01A8FFF7DBFF0300B42216
:102B8000F03B9BB252019A42644164422040E9E723
:102B9000FFFF0000E00A002010B586B00C220021E3
:102BA00003A811F047FA01238024A0200C4A240135
:102BB000D16AC0051943D162D26A21001A4000923D
:102BC000009A029301AA02330493019404F090FD49
:102BD000A02000222100C00502F0F2F906B010BDCD
:102BE000001002407FB51022002102A811F022FA45
:102BF0000221084B0848DA6A0A43DA62DB6A01AA52
:102C00000B40802100934901009B019104F070FD6D
:102C100007B000BD00100240000400507FB50C2238
:102C2000002103A811F006FA01210A4BA020DA6A5C
:102C3000C0050A43DA62DB6A0B400093009B8023E5
:102C40001B010193032301A9029302F07BF807B053
:102C500000BDC046001002407FB50C22002103A831
:102C600011F0E8F90221094B0948DA6A0A43DA62ED
:102C7000DB6A0B400093009B80235B0101930323DD
:102C800001A9029302F05EF807B000BD00100240F7
:102C9000000400508021A020002270B50901C00569
:102CA00002F08EF980211B48490102F083F90028C7
:102CB000F8D1182504008021A02001220901C005B7
:102CC00002F07EF98021A02000220901C00502F057
:102CD00077F980210F48490102F06CF9013843422D
:102CE0005841013D6400EDB22418002DE3D180214C
:102CF000A02001220901C00502F062F98021A02074
:102D00002A000901C00502F05BF980200004604040
:102D100070BDC0460004005010B5FFF7BBFF014B6B
:102D2000186010BD5C04002010B5FFF7B3FF094A1E
:102D300003001060084A00201268934208D0981AD5
:102D40000FF076FB054B19680EF04CFF0FF052FBAD
:102D500010BDC046600400205C0400201800002064
:102D60000020704770470120704770B505000920AA
:102D7000FDF773FD4D20FDF770FD0724112D12DDC9
:102D80000443E4B22B1C142D00DD1423053B102159
:102D9000494219430920C9B2FDF70EFD21004D201B
:102DA000FDF70AFD70BDA04304240443E4B22B1CCC
:102DB000022D00DA0223023BE9E700007FB514226E
:102DC000002101A811F036F91148FDF7A5FC114BBF
:102DD00080210293022301AA03930F480133890142
:102DE000049304F085FC802101AA0C48C90004F07A
:102DF0007FFC802101AA0948090104F079FC8021A7
:102E0000064801AA490004F073FC07B000BDC046A3
:102E10001C000020000011100008005000040050A9
:102E20007FB51422002101A811F004F90E4B802176
:102E30000293022301AA0D488901039304F058FC70
:102E4000802101AA0A48C90004F052FC802101AA8D
:102E50000748090104F04CFC8021054801AA4900FB
:102E600004F046FC07B000BD00001110000800503F
:102E700000040050802110B50368040000220D48B2
:102E8000890104F081FC8021636800220A48C9009E
:102E900004F07AFC8021A36800220748090104F0AD
:102EA00073FC80210022E3680348490004F06CFCB5
:102EB00010BDC04600080050000400507FB5142229
:102EC000002101A811F0B6F801238021A02002936F
:102ED00001AA02334900C005049304F009FC8021D3
:102EE000A02000224900C00504F074FC07B000BD1A
:102EF0000D4B10B51A78824204D01870002802D108
:102F0000FFF7DCFF10BDFFF7D9FF084C2378002B3B
:102F1000F8D08021A02001224900C00504F05AFC0D
:102F200000232370EEE7C046640400206E060020F4
:102F3000012210B5032800D000228021A0204900E2
:102F4000C00504F047FC10BD8022104B52001968E8
:102F50000A431A60DA680E490A40DA601A680D49B5
:102F60000A4001211A609A688A439A601A680A49DD
:102F70000A401A60DA6809490A40DA6000221A61D8
:102F80008022074B12059A607047C046001002402D
:102F90000C40FF88F6FFF6FEFFFFFBFFFFFF02FF7E
:102FA00000ED00E0F7B504000F0015001E0006F06C
:102FB0001DF90190002D2ED0226893683B40BB4242
:102FC00030D000252CE0731C26D0002E05D006F052
:102FD0000DF9019BC01AB0421DD9E02123685A683F
:102FE0008A435A601A68A0398A4380211A60A26A0B
:102FF00089018A4206D11968104801401960196890
:103000000A431A602300012251331A7000235034FE
:103010000325237004E0226893683B40BB42D2D171
:103020002800FEBD731CC8D0002ED6D006F0DEF8F6
:10303000019BC01AB042BFD9CFE7C046FFDFFFFFF8
:103040007047000070B504000120002C36D0250028
:1030500051352B78002B05D12200503220001370FF
:10306000FFF7EEFF022340222B702168A0680B6857
:1030700093430B606368A2690343E06803432069DC
:10308000034360690343E0690343206A0343A06A82
:10309000034380208000104003430B600423120C84
:1030A0001A40636A00201A43E36A4A600B61CB69E5
:1030B000034A1340CB61012360652B7070BDC0468D
:1030C000FFF7FFFFF7B504006E460020F0802600F2
:1030D00051363078089D012802D0307822280DD151
:1030E000002900D14CE1002A00D149E1002B00D198
:1030F00046E1200050300778012F02D10222100053
:10310000FEBD012707703078B84201D132203070FF
:1031100000206065A064E0648020A263A26AE38767
:10312000A387A386E386216323688001824206D1B8
:103130001868964F3840186018681043186040208F
:103140001F68074202D11F6838431860E76860684B
:10315000BC4680273F01BC4500D07AE0002806D05D
:1031600082277F00B84209D1E08E012806D1088865
:103170000231D8602163E18E0139E186E18E0029B8
:1031800009D080277F01E38E002B32D162689A42FA
:103190001BD12B000AE0802189018A4204D18022C0
:1031A000196852010A431A602B00002201212000F5
:1031B000FFF7F8FE002824D12368DA68A36B1A8091
:1031C0000233A363E38F013BE3878023A26A9B0161
:1031D0009A4200D0B0E02B00002201212000FFF72E
:1031E000E1FE002800D1A1E00223626D1343636574
:1031F00007E02B00002202212000FFF7D3FE002869
:1032000001D003227BE7236B226819880233D16047
:103210002363E38E013BE386E38E834207D1802163
:10322000A36A89018B4202D113683B4313602B00D0
:10323000002201212000FFF7B5FE0028E1D123681C
:10324000DA68A36B1A800233A363E38F013BE38741
:1032500099E7002806D082277F00B84209D1E08E86
:10326000012806D1481C20630978D960E18E013914
:10327000E186E18E002914D080277F01E38E002BA8
:1032800025D162689A42A0D12B0001212000FFF7CE
:1032900089FE0028B5D12368DA68A36B591CA163A5
:1032A00013E0802189018A4204D1802219685201E9
:1032B0000A431A602B00002201212000FFF772FE52
:1032C00000289ED12368DA68A36B1A707AE72B0076
:1032D000002202212000FFF765FE002891D1226B19
:1032E000531C236312782368DA60E28E013AE28687
:1032F000E28E824207D18021A26A89018A4202D1EC
:103300001A683A431A602B00002201212000FFF7BF
:1033100049FE002800D074E72368DA68A36B591CC3
:10332000A1631A70E38F013BE387A7E76A4623682E
:10333000DB68D3806B46DB8801222B0080212000D4
:10334000FFF730FE021E02D02023626D4EE70123FC
:10335000250033708023A16A9B015035994211D119
:1033600023689E68F6060DD50222666D32436265BB
:103370001A68064C22401A601A68114319602870B6
:103380000122BCE600232B70B9E6C046FFDFFFFF39
:10339000036806491A686A300A401A609A6823313D
:1033A000FF318A439A60202303707047DFFEFFFFDE
:1033B00030B5050069352B78202B01D0022030BDB7
:1033C000002901D10120FAE7002AFBD0802384687C
:1033D0005B019C4204D10369002B01D1CB07F1D4DE
:1033E000040068342378012BE8D003005033C16413
:1033F0005A801A8000232122C3662A702370016834
:103400005F32086802430A601800D8E770B505000B
:103410006A352B78202B01D0022070BD002901D104
:103420000120FAE7002AFBD0802483686401A342CC
:1034300004D10469002C01D1CC07F1D40400683414
:103440002678012EE8D04165010058310A804A8073
:1034500080225201934219D10369002B14D1134ADF
:1034600003005C331A80002322220121C3662A70E4
:1034700023700268906801439160902110684900B0
:10348000014311601800C8E7FF22E9E7002B04D1CF
:103490000369002BF8D07F22E2E780225205934295
:1034A000E1D10369002BF6D03F22D9E7FF010000EC
:1034B0001300020070B5693204001078202801D092
:1034C000022070BD002901D10120FAE7002BFBD0BA
:1034D0008020A5684001854204D12069002801D1DF
:1034E000C807F1D42600683630780128E8D00120DA
:1034F000307020005030E16400250380438021209B
:10350000E5661070206E0A4A8563C262094A02634A
:10351000094A42632268283201F0FAFD40222368FA
:1035200028001A623570996892180A439A60C8E7B1
:103530003D35000873350008F33500080268836ADA
:1035400011682022080010B5104011420CD11A0059
:1035500080211B68523210809A688A439A60402208
:1035600019680A431A6010BD180006F08DF9FAE7D1
:10357000704710B5806AFFF7FBFF10BD010070B502
:103580006A310A780368222A2BD1020080245C3237
:10359000168885685A6A6401436D3240A5421CD181
:1035A0000469002C19D11A800233436502005A3293
:1035B0001388013B9BB21380002B0DD103680B4C89
:1035C0001A6822401A609A682334FF34A2439A6032
:1035D00020230B7006F07AF970BD5C1C44651A70EC
:1035E000E4E7082299690A439A61F5E7DFFEFFFFE5
:1035F000704710B5846A210069310B78212B0DD1F9
:1036000023689A68120609D52200002052321080E1
:103610001A68C03082431A6020230B7023006A337B
:103620001B78222B0AD123689B685B0606D52300F2
:1036300000225A3320001A80FFF7AAFE1023E26E00
:1036400020001343E366FFF7D3FF10BDF8B503680E
:103650000400DA691968100708D12020024262D0FC
:10366000014260D02000FFF789FFF8BD9D689027D8
:1036700001202E007F0006400F40374354D0024205
:1036800005D0CD0503D51862E56E2843E06602201B
:10369000024206D0002E04D01862E56E00182843BE
:1036A000E0660420024206D0002E04D01862E56EC7
:1036B00002382843E0660820024207D020250D404A
:1036C000354303D01862E36E1843E066E36E002BC7
:1036D000CBD020231A4204D0194202D02000FFF799
:1036E0004DFFE36E20001B0706D423689A68402331
:1036F00015001D401A422BD0FFF74AFE40212368D7
:103700009A680A4220D09A68606E8A439A600028BC
:103710001AD0324B836301F027FD0028A5D0606EDC
:10372000836B9847A1E79D6880204003024213D035
:103730006D0211D522001862202369321370200017
:10374000537002F04FFD90E72000FFF751FF8CE728
:10375000FFF74EFFE56688E780252A422CD02942F4
:103760002AD0220069321278212A00D07DE7200079
:1037700052300288002A07D11A68AA431A604022F0
:1037800019680A431A6070E78021A568E26C490154
:103790008D420CD12169002909D111880232C90555
:1037A000C90D9962E2640388013B03805DE7511C07
:1037B000E16412789A62F6E74020024200D154E7B1
:1037C000014200D151E71A6882431A602300202287
:1037D000693320001A7006F057F846E7E137000811
:1037E000806A0023020010B55A321380083A138011
:1037F000FFF7FEFE10BD0000F8B505000368826803
:1038000000691968024368698A4E0243E869024305
:10381000894801400A431A605A6888490A40E968A1
:103820000A435A60A969B34201D02A6A11439A68CF
:10383000834802400A439A60824A93421FD103227E
:10384000814BDB6C1340022B22D0934212D108240F
:10385000022001F01BF92F680300B7426CD1082C3D
:1038600000D9E4E02000FCF72BFC35E23BE261E20A
:10387000E2E264000424012BEAD0033CE8E7734A47
:1038800093420ED1704BDC6C0C231C40082C01D1F0
:103890000224DDE70C2CDAD0043C63425C41A40036
:1038A000D6E76B4A934201D10024D1E7694A93429B
:1038B000FAD01024B342CBD1634B8022DC6CC023FE
:1038C0001B011C4012019442E2D09C42BFD0624BCB
:1038D000E418E2E700F0E4FF002809D100244AE000
:1038E000594B18685D4BC006C01718405C4BC01898
:1038F00003236A685343834200D998E01303834249
:1039000000D294E00021070E0602500836184F41FD
:103910000B0030003900FCF705FD524BC218524B2A
:103920009A4200D983E02B68D860D7E700F0BEFE4A
:10393000D2E780200002DBE78022E969120291428F
:103940003ED1082C39D82000FCF7BAFB05171D37EB
:103950002F3737373200696858004B08C018FCF71A
:10396000CDFB80B20F2302009A43130000072A68A0
:10397000400F0343D3602000F8BD00F0A1FF696849
:1039800040004B0809E0304B69681A6810231400A6
:1039900048081C401A4206D0344BC018FCF7AEFB56
:1039A000002480B2DEE7324BD8E700F07FFEE6E786
:1039B000802369685B024808EFE701240020D1E713
:1039C000082C34D82000FCF77BFB05101B322A3270
:1039D00032322D0000F064FF69682D684B0818181A
:1039E000FCF78CFB80B2E860C5E700F069FF69680E
:1039F0002C684B081818FCF781FB80B2E0606DE77B
:103A0000114B69681B684808DB0606D5194BC018BE
:103A1000FCF774FB80B2F86060E7114BF7E700F049
:103A200045FEE4E7802369681B024808EFE70124AC
:103A3000A1E7C04600480040F369FFEFFFCFFFFF5A
:103A4000FFF4FFFF00380140001002400044004036
:103A5000004C00400050004000FCFFFF00E548FF24
:103A60000024F40000FDFFFFFFFC0F0000127A00AD
:103A70000048E80100093D00436A30B5DA0706D581
:103A80000168284C4A682240846A22434A609A07A7
:103A900006D50168244C4A682240C46A22434A6021
:103AA0005A0706D50168214C4A682240046B22431C
:103AB0004A601A0706D501681D4C4A682240446BCB
:103AC00022434A60DA0606D501681A4C8A68224009
:103AD000846B22438A609A0606D50168164C8A6870
:103AE0002240C46B22438A605A0610D50168134DE8
:103AF0004A68046C2A4022434A608022520394425E
:103B000005D14A680E4C2240446C22434A601B0691
:103B100006D502680B4953680B40816C0B43536018
:103B200030BDC046FFFFFDFFFFFFFEFFFFFFFBFFB5
:103B3000FF7FFFFFFFEFFFFFFFDFFFFFFFFFEFFF55
:103B4000FFFF9FFFFFFFF7FFF8B504000E00150011
:103B50001F002268D36933409B1B59424B41AB4243
:103B600001D0002018E0069B0133F3D0069B002B08
:103B700013D123680C491A6803200A401A609A6816
:103B8000A331FF318A439A602200202369321370E7
:103B90005370002368342370F8BD05F027FB069BA3
:103BA000C01B9842D5D9E4E75FFEFFFFF0B50600E1
:103BB00085B002936936337804000D001700202B7E
:103BC00015D1002901D0002A02D1012005B0F0BD95
:103BD000802382685B019A4204D10369002B01D1E2
:103BE000CB07F2D4230068331A78012A01D10220CE
:103BF000ECE701221A700023E3662133337005F0ED
:103C0000F5FA230050331F805F80802703907F01E7
:103C1000230052331A88002A0AD1029B40210093C4
:103C20002000039BFFF790FF00281FD00320CDE763
:103C30001A888021013A1A80029B002200932000FA
:103C4000039BFFF781FF0028F0D1A3682268BB42E5
:103C500008D12369834205D12B880235DB05DB0DB2
:103C60009362D5E72B7801359362D1E7202368343E
:103C700033702070AAE7000073B500260400C66602
:103C800005F0B4FA236805001B681B0717D42368E6
:103C90001B685B070AD580210F4B00220093200090
:103CA0002B00C903FFF750FF002813D12200202367
:103CB0000020693268341370537020700BE080214B
:103CC000054B32000093890303002000FFF73CFFFF
:103CD0000028DCD0032076BDFFFFFF0170B5040093
:103CE0000120002C2CD0250069352B78002B05D124
:103CF000220068322000137005F0F8FE2423012111
:103D00002B70226813688B431360636A002B02D008
:103D10002000FFF7B1FE2000FFF76EFD01280FD055
:103D2000236808495A6820000A402A215A609A6884
:103D30008A439A60012219680A431A60FFF79CFFC0
:103D400070BDC046FFB7FFFF084B13B5040008491C
:103D50001868FCF7D3F944430194019B002B00D170
:103D600013BD019B013B0193F7E7C04634000020DF
:103D700040420F000321036870B59A6804000A40AE
:103D8000012A04D11968114201D0002070BD996840
:103D9000134A114209D01023A26D1343A3650123D6
:103DA000E26D13430120E365F0E701259A682800DE
:103DB0002A439A60FFF7C8FF05F018FA0600236847
:103DC0001B682B42E1D105F011FA801B0A28F6D9B5
:103DD0001023A26D1343A365E36D2B43E2E7C046B6
:103DE000170000807047000070B5041E01D101204B
:103DF00070BD836D002B05D102005432C365137072
:103E0000FFF7F0FFA36DDB0603D423689A6852071F
:103E100007D51023A26D543413436360002323702D
:103E2000E5E7A16D534A11400632FF320A43A2650D
:103E3000032299681140504A012902D118680842AA
:103E400019D180256168ED0548004008A84203D0DB
:103E500080200006814272D11869800080081861B4
:103E60001869014319611820D9688143D960D9685C
:103E7000A0680143D9601168404801401160A16BFE
:103E80001068490601431160802299685205114269
:103E900002D199680A439A60DA683949656B0A4029
:103EA000DA60E268D868216A2A4302434803024381
:103EB000206B40000243A06980030243E069C00315
:103EC0000243206902384542684180000243C22013
:103ED000DA60A26AFF30824204D0E56AD8682A43D9
:103EE0000243DA60626A012A06D1002933D18022B6
:103EF000D96852020A43DA60216C1A69012932D169
:103F00002048A56C02401A61626C18692A43E56C6E
:103F10002A4302431A611A691143196107215A6938
:103F200000208A435A615A69E16B0A435A610323AC
:103F3000E065A26D9A43023B1343A36558E71869F5
:103F4000114D8000800818611068284010601068CA
:103F50000143116087E72021A06D0143A165E16D58
:103F60000A43E265C8E701210A42D7D01A698A43A9
:103F70001A61D3E7FDFEFFFF08270140FFFFFFFDA9
:103F80001902FEFF03FCFFFFFFFFC3FF036870B5CC
:103F90009B6804005B0701D5022070BD0500543505
:103FA0002B78012BF8D001232B70C369012B11D181
:103FB000A26D0B4B00201A4080235B0013431C2290
:103FC000A365E065287023681A609968183A0A4367
:103FD0009A60E2E7FFF7CEFE0028E9D0DDE7C046B1
:103FE000FEF0FFFFF8B5456904000E00082D0DD066
:103FF00003680120DB680C25034207D02023A26D53
:1040000054341343636000232370F8BD05F0EEF8C9
:10401000070023681A68154222D08022A16D920001
:104020000A43A265C022D9681201114213D1226A43
:10403000002A10D11A6812070DD59A68520722D4A7
:104040000C215A688A435A60A16D154A1140043206
:10405000FF320A43A265A269002A1DD00020D4E7DE
:10406000721CD7D0002E08D10423A26D5434134300
:104070006360002303202370C7E705F0B7F8C01B77
:10408000B042C6D9F0E72022A16D0A43A265012201
:10409000E16D0A43E265DEE70C221A60DEE7C04606
:1040A000FEFEFFFF0368186C70470000F8B50400BF
:1040B0005434237805000220012B0CD001232370F7
:1040C0002A689068400707D52022A96D18000A4386
:1040D000AA6500222270F8BD802380260D68194F42
:1040E00049686803DB02400B2B40B602B94218D086
:1040F000916A01439162002B08D08023124A1B046D
:1041000011680A200B431360FFF71EFE354205D0ED
:1041100080230D4ADB0311680B43136000202070DD
:10412000D9E7916A81439162002B04D0064A07497E
:1041300013680B4013603542F0D0034A04491368FA
:104140000B40EAE70110000008270140FFFF7FFF56
:10415000FFFFBFFF174B70B5DC68F0222100114054
:10416000144225D18024C0229E6B6405124D520159
:10417000264213D02B681A40C0235B019A4203D118
:104180000E4BC1184B42594101240D4A1368A343F9
:104190000B43136010682040484070BD9E6B344351
:1041A0009C632C68074D22409C6B2C409C63E3E78A
:1041B0000021E9E700100240007000400040FFFFCE
:1041C00000200240FFFFFFEFF0B50368040085B058
:1041D000DB074ED423689B0700D59FE02368DB06EE
:1041E00035D50C23BD4DEA681A4200D0EBE02B68B0
:1041F0009B0502D5E369002B50D0E0226B68666A0C
:10420000120213409E4200D8C9E03000FFF7A2FF1F
:10421000002800D0D5E06B68B14A134033436B608F
:104220006A68236A12021B06120A13436B6080231A
:10423000760B01361B02B340EA68AA481206120F39
:10424000825CA949D34003200B6004F0C7FF2368B8
:104250001B0700D5EEE023685B0700D511E123685A
:104260009B0600D593E1A16A002900D0C3E100209C
:10427000A7E00C21994DEB680B40082B08D0802358
:10428000EA685B020A408A420AD1EA681A4207D009
:104290002B689B039ED56368002B9BD1012090E087
:1042A00062689A4212D12A6813432B6004F09EFF81
:1042B00080260700B6022B6833428BD104F096FFAC
:1042C0008A4BC01B9842F6D903207AE0A021C9028C
:1042D0008A4205D180222968D2020A432A60E2E795
:1042E000296883480140296029680B400393039B98
:1042F00080492B680B402B60002AD7D104F076FF51
:1043000080260700B6022B68334200D162E704F032
:104310006DFF764BC01B9842F5D9D5E70C226F4D47
:10432000EB681340042B06D0EB681340934210D186
:10433000EB68DB030DD42B685B0702D5E368012B28
:10434000ACD16A6823696C491B020A4013436B6055
:1043500044E7E2682B68002A10D009218B431343FD
:104360002B6004F043FF042607002B683342E8D19A
:1043700004F03CFFC01B0228F7D9A5E701229343B4
:104380002B6004F033FF042607002B68334200D172
:1043900024E704F02BFFC01B0228F6D994E76B68D2
:1043A0004F4A3000134033436B606A68236A12023D
:1043B0001B06120A13436B60FFF7CCFE002800D1E6
:1043C00035E705B0F0BDE369002B20D080232A68D3
:1043D0005B0013432B6004F009FF80260700B60042
:1043E0002B6833420DD06B683D4A1340626A134319
:1043F0006B606A68236A12021B06120A13436B6021
:1044000025E704F0F3FEC01B0228E9D95CE72B681E
:104410003A4A802613402B6004F0E8FE0700B600FD
:104420002B68334200D112E704F0E0FEC01B0228E3
:10443000F6D949E762690123284D002A10D02A6D78
:10444000022613432B6504F0D1FE07002B6D334287
:1044500000D000E704F0CAFEC01B0228F6D933E7FB
:104460002A6D02269A432A6504F0C0FE07002B6DD0
:10447000334200D1EFE604F0B9FEC01B0228F6D9A2
:1044800022E780230021154D5B05AA6B00911A429B
:1044900004D1AA6B1343AB63012300938027184E0A
:1044A0007F0033683B4208D08022A36852009342C9
:1044B00028D12A6D13432B6549E033683B433360B1
:1044C00004F094FE019033683B42EDD104F08EFE7F
:1044D000019BC01A6428F6D9F6E6C04600100240D7
:1044E000FF1FFFFF697101083400002088130000DE
:1044F000FFFFFEFFFFFFFBFFFFE0FFFFFFFEFFFFF1
:1045000000700040002B16D12B6D5F4A80271340AE
:104510002B652B6D5D4ABF0013402B6504F066FED2
:1045200006002B6D3B421AD004F060FE584B801BF6
:104530009842F6D9C8E6A021C9008B4218D1802341
:10454000296DDB000B432B652B6D1A432A6504F0A4
:104550004DFE80270600BF002B6D3B4210D0009B14
:10456000012B00D07BE6AB6B4A4A1340AB6376E687
:104570002B6D454A13402B652B6D444A13409AE737
:1045800004F034FE424B801B9842E5D99CE6A169B9
:104590000123414D414A002918D0A9680226194338
:1045A000A960696B0B436B638023116A9B010B430A
:1045B000136204F01BFE0700AB68334200D052E6E2
:1045C00004F014FEC01B0228F6D97DE6A968022675
:1045D0009943A960136A32490B40136204F006FE46
:1045E0000700AB68334200D13DE604F0FFFDC01B7D
:1045F0000228F6D968E60C22274DEB681340934257
:1046000000D14BE62B68274A13402B6002292BD19F
:1046100004F0ECFD80260700B6042B6833421DD160
:10462000216BE36AEA680B431F490A401343626B3C
:1046300080241343EB6080232A685B0413432B60C0
:1046400004F0D4FD0600A4042B68234200D00EE63B
:1046500004F0CCFD801B0228F6D935E604F0C6FD37
:10466000C01B0228D9D92FE604F0C0FD8024060023
:10467000A4042B68234200D1F9E504F0B7FD801BA8
:104680000228F6D920E6C046FFFEFFFFFFFBFFFF32
:1046900088130000FFFFFFEF001002400000014000
:1046A000FFDFFFFFFFFFFFFEFFFF02FF0C221A4BA1
:1046B00010B5D9680A40082A2CD00C2A0CD0042A3C
:1046C00020D118681023184043425841134B4042F0
:1046D0001840134BC01810BD12488A02120F825C9A
:1046E0000902D868890F0131C00304D50E48504330
:1046F000FBF704FDEFE71B68DB0601D50848F6E78A
:104700000A48F4E780205B6800021B045B0F01335A
:104710009840E0E70448DEE700100240001BB700C5
:1047200000093D005871010800127A000024F400CD
:10473000F7B50122534D06002B68019113408B42BF
:1047400028D33268930731D4D20737D401232A689B
:1047500001991A408A4200D985E032684A4C5307D1
:1047600000D588E0120706D5E26833694749DB00C7
:104770000A401343E360FFF799FFE368444A1B06CE
:104780001B0FD35C4349D8400860032004F026FD8A
:1047900000200AE02B68019993430B432B602B68A0
:1047A0001340019A9342CCD00120FEBDF02036493F
:1047B000CB688343B0680343CB60C5E7324C726873
:1047C0002368022A19D19B03EED50321E3688B43AA
:1047D0001343E36004F00AFD73680700022B19D14C
:1047E0000C22E3681340082BB0D004F0FFFC2A4BE6
:1047F000C01B9842F4D90320D7E7032A02D19B01BA
:10480000E3D4D1E7012A02D15B07DED4CCE79B05D4
:10481000DBD4C9E7032B0CD10C22E368134093428D
:1048200000D193E704F0E2FC1B4BC01B9842F3D984
:10483000E1E7012B11D00C22E368134200D185E798
:1048400004F0D4FC144BC01B9842F4D9D3E704F015
:10485000CDFC114BC01B9842CDD80C22E36813400D
:10486000042BF4D172E72A689A432A602A681A4214
:1048700000D172E798E7E36808490B40F1680B4301
:10488000E3606FE70020024000100240FFC7FFFF17
:10489000697101083400002088130000FFF8FFFF51
:1048A000044B054ADB6805495B055B0FCB5C106870
:1048B000D8407047001002403400002061710108A8
:1048C000044B054ADB6805499B045B0FCB5C106811
:1048D000D840704700100240340000206171010888
:1048E0000368F7B505009B0667D5802300215C4C63
:1048F0005B05A26B00911A4204D1A26B1343A36320
:10490000012300938027574E7F0033683B4209D133
:1049100033683B43336004F069FC019033683B42E9
:1049200000D185E0686822680100C0234240C020B1
:104930009B0280031940024205D0994203D12268AC
:104940000120920373D4226D100018401A421BD02C
:10495000884219D02B689B0616D58021236D206DC7
:10496000090301432165216D3F4A40481A40014037
:1049700021652265DB0507D504F038FC8027060099
:10498000BF00236D3B425CD06968C0230A009B02D4
:104990001A409A4207D1236835480340C02080035B
:1049A00001400B432360236D1A43009B2265012BBA
:1049B00003D1A36B2F4A1340A3632B68DA0706D5F4
:1049C00003202749CA6C8243A8680243CA649A0735
:1049D00006D50C202249CA6C8243E8680243CA64A7
:1049E0005A0706D51E492448CA6C0240286902436A
:1049F000CA641A0706D51A492048CA6C0240686979
:104A00000243CA64DA0506D515491748CA6C024044
:104A1000A8690243CA645A0606D511491848CA6CE7
:104A20000240286A0243CA641B0611D40020FEBD5E
:104A300004F0DCFB019BC01A642800D86EE7032059
:104A4000F5E704F0D3FB0F4B801B984299D9F6E7AA
:104A5000034A0D49D36C0B40E9690B43D364E5E786
:104A60000010024000700040FFFFFCFFFFFFF7FF57
:104A7000FFFFCFFFFFFFFFEFFFF3FFFFFFCFFFFFC2
:104A8000FFFFFFFB88130000FFFFF3FF10B51028A6
:104A900000D1B9E008D80138072827D8FBF710FB68
:104AA000697F268F262626A040283AD080235B00E7
:104AB000984200D1AEE0202818D1C02480215F4A5E
:104AC000A402106D136D490223408B4203D180056F
:104AD000C00FC0030BE0802189028B4204D1800704
:104AE000574BC017184002E0A34201D0002010BD70
:104AF00013680B42FAD0C023106880229B03184031
:104B00009203904200D194E0984200D193E04D4B43
:104B1000C018434258414C4B404218404B4BC018C0
:104B2000E5E7464BDA6C52011ED41A689201DDD5D6
:104B3000DA684748D9689202120F805C0902DA6885
:104B4000890F0131D2030DD410221B6813405A4241
:104B50005341404A5B4213403C4A9B185843FBF781
:104B6000CDFAC4E73C4BF9E798683C4B8007C01787
:104B7000B8E7324B0321D86C02000A40084202D148
:104B8000FFF79EFEB3E7022A04D118684007344BB2
:104B9000C017A7E7012A10D1FFF788FDA7E7274B29
:104BA0000C21D86C02000A40084202D1FFF778FEBF
:104BB0009DE7082AE9D0042AEED0186D87E71F4B3D
:104BC000C021D86C090102000A400842EED08021C1
:104BD00009018A42D9D08021C9008A42EDD1DBE7A0
:104BE000164AC021D06C890103000B400842DDD079
:104BF000802189018B4201D11068C7E780225201D0
:104C0000934200D072E7C7E70C4B9B6B5B0200D46A
:104C10006CE7CBE7094AC021D06C890203000B4046
:104C20000842C3D0802189028B42E5D08022520203
:104C3000E6E70C485BE70C4859E7C0460010024025
:104C4000889000000000F0FF807BE1FF00093D003C
:104C500058710108001BB70000127A00006CDC02DA
:104C60000024F40040420F0020A107000223064A5E
:104C700010B5116803200B43136004F0AFFA04F081
:104C8000CBFA002010BDC04600200240024A136843
:104C9000013313607047C046680400200121024AB6
:104CA00053688B4353607047005801400221024A09
:104CB00053688B4353607047005801400421024AF7
:104CC00053688B43536070470058014010B5FF2470
:104CD0000323220003408901DB0021409A409940D0
:104CE00000280BDA0F23184008380A4B8008800090
:104CF000C018C36993430B43C36110BDC024064B66
:104D000080088000C018A400035993430B4303514B
:104D1000F3E7C04600ED00E000E100E01F2318408B
:104D20001E3B8340014A13607047C04600E100E02B
:104D30001F2318401E3B8340014AD3677047C0467B
:104D400004E100E00023F0B585B00A681400DC40FF
:104D500001D105B0F0BD012714009F403C40A4469E
:104D60003A4200D197E04A68160001921022964319
:104D7000022E13D107241C40B4400F25DA08B2409C
:104D8000A54082180292126A03951500039A954372
:104D90002A000D69A5401543029A156203255C009F
:104DA000013EA540012E0CD8CA688668A240AE43D9
:104DB00032438260019A466812099A40BE433243E8
:104DC00042600327019A06683A40A240AE4332434C
:104DD0000260C268AA4315008A68A24080242A4360
:104DE000C260019A6405224255D001252B4C626BAA
:104DF0002A4362633D002A4A9C08A400A4180F229B
:104E00001D40AD00AA40A027A668FF0596430022DA
:104E1000B84214D0234F0132B84210D0224F013291
:104E2000B8420CD0214F0132B84208D0204F013295
:104E3000B84204D01F4A8218571EBA410532AA4010
:104E40003243A26064461C4A019E15682C43F60357
:104E500002D42C006546AC43146064465568019E3C
:104E60002C43B60302D42C006546AC435460644620
:104E70009568019E2C43F60202D42C006546AC4393
:104E800094606446D568019E2C43B60202D42C007F
:104E90006546AC43D460013357E7C046001002407A
:104EA000000001400004005000080050000C0050B9
:104EB0000010005000E4FFAF00040140F7B50022ED
:104EC0000091009BD34000D1F7BD01259540009C87
:104ED000009B2C402B425CD0032651008E4003687F
:104EE000310033430360D3089B00C3181E6A0727B1
:104EF000B4460F261740BF00BE4037006646BE438B
:104F00001E6283680F278B4383604368AB43436013
:104F1000C36803258B43C36091081F4B8900C918E0
:104F2000A0231540AD00DB05AF409C468E680023F2
:104F30003E400196604518D0184B9C4601236045C1
:104F400013D0174B9C46022360450ED0154B9C4650
:104F50000323604509D0144B9C460423604504D0CC
:104F6000124BC3185E1EB3410533AB40019DAB42EB
:104F70000FD18B68BB438B600D4B1968A14319603F
:104F80005968A14359609968A1439960D968A143C0
:104F9000D960013295E7C04600000140000400508E
:104FA00000080050000C00500010005000E4FFAF5B
:104FB0000004014000690840431E9841C0B2704798
:104FC000002A01D0816170478162FCE7044B10B573
:104FD0005A69104202D0586104F068F910BDC04609
:104FE00000040140030030B50120002B29D0981D9A
:104FF000C27F002A01D1591DCA770222C2771968DF
:10500000354A0C68DD6814409A682A431D692A43B2
:105010005D692A439D692A43DD692A431D6A2A4343
:1050200022430A602D4A91420CD10F242C4A116868
:10503000A143116011685B68194311600123C377B4
:10504000002030BD274A91420AD1F024244A116839
:10505000A14311605B6811681B010B431360EDE70E
:10506000214A914208D11E4A204C1168214011600A
:105070005B6811681B02F0E71D4A914208D1184A8B
:105080001C4C1168214011605B6811681B03E4E748
:10509000194A914208D1124A184C116821401160F6
:1050A0005B6811681B04D8E7154A914208D10C4A85
:1050B000144C1168214011605B6811681B05CCE736
:1050C000114A9142BAD1064A104C11682140116030
:1050D0005B6811681B06C0E70FC0FFFF08000240B5
:1050E000A80002401C00024030000240FFF0FFFF19
:1050F00044000240FF0FFFFF58000240FFFFF0FF97
:105100006C000240FFFF0FFF80000240FFFFFFF036
:10511000F0B50225471DFE7F2C00012E1ED0012672
:10512000841DFE77E57704682568B54325606360D4
:105130008368102B14D1A260E1600223226813431C
:105140002360042322681343236008232268134347
:105150002360012322681343236000242000F0BD54
:10516000A160E260E9E7000010B5841DE37F022B37
:1051700003D00423C363012010BD0E2103681A6805
:105180008A431A60012219689143196018498B42B9
:1051900017D018490F328B4213D0174A93421CD0B4
:1051A000164A93421CD0164A93421CD0154A9B18AB
:1051B0005A1E93415A42F0231B041A4080235B037A
:1051C000D218114B5A6001230022E377431DDA778E
:1051D000836B93420AD10020CEE780225200F0E791
:1051E00080225201EDE780225202EAE79847F2E777
:1051F000080002401C00024030000240440002400F
:105200005800024094FFFDBF0000024070B50368E3
:10521000994D9A4E040008222968B3421AD0984842
:105220007832834216D0974A934200D1EEE0964AF4
:10523000934200D1EDE0954A934200D1ECE0944ACC
:105240009A18501E8241F0205242C0040240802031
:10525000000412180A4233D00822196811422FD0D4
:10526000196891431960B3421AD0854978328B424C
:1052700016D0844A934200D1D1E0834A934200D1B0
:10528000D0E0824A934200D1CFE0814A9B185A1E57
:1052900093415A42F023DB041A4080231B04D218A6
:1052A00001236A60E26B13430422E363A31DDA77F0
:1052B0000022631DDA77636B934201D02000984788
:1052C000236804222968B3421AD06D483C328342D5
:1052D00016D06C4A934200D1AAE06B4A934200D1A7
:1052E000A9E06A4A934200D1A8E0694A9A18501E80
:1052F0008241F0205242800402408020C0031218F4
:105300000A4230D004211A680A422CD01A68920648
:1053100002D41A688A431A600422B3421AD0584948
:105320003C328B4216D0574A934200D189E0564A0C
:10533000934200D188E0554A934200D187E0544A15
:105340009B185A1E93415A42F0239B041A40802313
:10535000DB03D2186A600522A31DDA77236B002BCA
:1053600001D020009847236802222968B34217D051
:1053700043481E32834213D0424A93426AD0424A83
:1053800093426AD0414A93426AD0414A9A18501EC9
:105390008241F020524240040240802080031218D3
:1053A0000A4232D002211A680A422ED01A689206A6
:1053B00002D41A688A431A600222B34217D03049D5
:1053C0001E328B4213D02F4A93424CD02E4A934226
:1053D0004CD02E4A93424CD02D4A9B185A1E9341D2
:1053E0005A42F0235B041A4080239B03D2186A6060
:1053F0000122E36BE363A31DDA770022631DDA77F2
:10540000E36A934201D02000984770BD80221201C8
:1054100020E7802212021DE7802212031AE7802271
:1054200012013DE7802212023AE78022120337E799
:105430008022D20064E78022D20161E78022D2027A
:105440005EE78022D20085E78022D20182E78022B7
:10545000D2027FE780229200A2E7802292019FE79A
:10546000802292029CE780229200C0E78022920173
:10547000BDE780229202BAE7000002400800024025
:105480001C0002403000024044000240580002402C
:1054900094FFFDBF1021024A13688B4313607047CD
:1054A0000070004010B50324084A1368A343034367
:1054B00004201360064A136983431361012901D153
:1054C00030BF10BD40BF20BF20BFFAE700700040D2
:1054D00000ED00E010B503240A4A1368A343034318
:1054E00013600422084B186902431A61012905D18F
:1054F00030BF04211A698A431A6110BD40BF20BF22
:1055000020BFF6E70070004000ED00E08023034A72
:10551000DB0011680B4313607047C0460070004009
:105520008023034A9B0011680B4313607047C046F9
:1055300000700040F7B50227451CEB7F04003800DF
:10554000012B33D00123CA22E619EB77F7772368C2
:105550005A62773A5A62AD32914228D19A68254907
:105560000A409A609A6824490A409A6003F03EFE15
:105570000090012701212368DA6817400A4206D00B
:10558000FF2200205A620123F377E8770EE003F050
:105590002DFE009BC01AFA239B009842E9D9FF22F6
:1055A00023685A620323F377EF770320FEBD9A68DE
:1055B00012490A409A609A6811490A409A6003F0B9
:1055C00015FE01902368DA681100394000913A42D3
:1055D000D6D103F00BFE019BC01AFA239B00984220
:1055E000F0D9FF2223685A620323F377009BEB77FD
:1055F000DBE7C046FFFEFFFFFFEFFFFFFFFDFFFF02
:10560000FFDFFFFFA0210268F8B5D36804008B43D9
:10561000D36003F0EBFDFA2607002025B6002368CF
:10562000DB682B4201D00020F8BD03F0DFFDC01B7A
:10563000B042F4D90320F7E7F8B540240368050029
:10564000DA68224201D00020F8BD01225242DA601D
:1056500003F0CCFDFA260700B6002B68DB68234276
:10566000F1D103F0C3FDC01BB042F6D90320EBE734
:1056700070B5041E01D1012070BD851CEB7F002B8D
:1056800003D1421CD37703F0DFFD0223CA22EB775C
:10569000236820005A62773A5A62FFF7CDFF2368E9
:1056A000002804D0FF225A620423EB77E3E79A68CC
:1056B000124926690A409A60626899683243A6696D
:1056C00032430A439A60E2681A61A26819691204B7
:1056D0000A4380211A61DA688A43DA60DA6C7D391C
:1056E0008A43DA64E2696469D96C22430A43DA6462
:1056F000FF225A620123EB77BEE7C046BFFF8FFF50
:105700000023092803D81B011843C0B270470A3888
:105710000133C0B2F5E70000F0B5431C85B001933A
:105720000C00D97F022305001F00012935D001217B
:105730004018C177E918CB7702912F6820786678F6
:105740003E33002A2CD1BA68110019401A4200D108
:10575000E170FFF7D5FF03903000FFF7D1FF06029D
:10576000A078FFF7CDFFE378039A1B0403431204EC
:1057700013431E43CA237B62773B7B622800FFF7FB
:105780005BFF2B68071E19D0FF225A620423029A7E
:10579000D3770023019AD3770127380005B0F0BDF5
:1057A000BA68110019401A4200D1E170A3780004D0
:1057B000360206431E43E3781B04DAE7174A18490A
:1057C00016401E609A6820690A409A60E2689968EB
:1057D00002430A4380219A60DA688A43DA609A6851
:1057E000202314001C401A420DD12800FFF70AFFA5
:1057F000B84208D0FF222B685A620423029AD3775A
:10580000019BDC77C8E7FF222B685A620123029ACA
:10581000D3770023019AD377BFE7C0467F7F7F000D
:10582000FFFFFBFF0223F0B5461C0500F07F1C00C4
:1058300085B0012836D00120EF18F077FB770B7880
:105840005B0301938B784C780293C878002A2CD1A3
:1058500010231C4203D09C430A34E4B24C70FFF77F
:105860004FFF03902000FFF74BFF04020298FFF761
:1058700047FF019A039B10431B04034323430193F7
:10588000CA222B6828005A62773A5A62FFF7D4FE80
:105890002B68041E12D0FF225A620423FB770023D8
:1058A0000124F377200005B0F0BD019B00041843EC
:1058B000029B2402184320430190E1E7114A019919
:1058C000114059608021DA688A43DA609A6820239F
:1058D0001100194001911A420BD12800FFF792FEE6
:1058E000A04206D0FF222B685A620423FB77019B5B
:1058F000D6E7FF222B685A620123FB770023F37758
:10590000D0E7C0463FFFFF000223F7B50D00411C62
:10591000CE7F04001800012E00D195E00138C87731
:10592000E118CB776978266800912878AF783E3304
:10593000002A61D1B268110019401A4200D1E97001
:10594000FFF7DEFE01900098FFF7DAFE00903800C6
:10595000FFF7D6FE07006B1CD87FFFF7D1FE6A6900
:10596000EB6900061343EA78120413431F43019BBB
:105970001B041F43009B1B021F430743AB696A685C
:105980001A43CA23009273626A6A773B7362AD332B
:105990009A425AD1B368414A01251340B360F26874
:1059A0003F4BD2B21343F36003F020FC0190236815
:1059B000DA6816002E402A4235D0009ADF615A6418
:1059C0008022996852000A439A60802299685201A5
:1059D0000A4380219A60334A8902106808431060A4
:1059E000906801439160FF2200205A62FE3AA31C96
:1059F000A418DA77E07727E0B268110019401A425C
:105A000000D1E970EB696A69000413431F43009BEE
:105A100007431B021F43EB781B041F436B1CDB7FF8
:105A20001B061F43AAE703F0E1FB019BC01AFA2300
:105A30009B009842BBD9FF22032023685A62A31C13
:105A4000FC3A0134DA77E677FEBDB368164A0225E0
:105A50001340B360F268154BD2B21343F36003F006
:105A6000C5FB01902368DA6816002E402A420BD04D
:105A7000009A1F629A648022996892000A439A6091
:105A8000802299689201A3E703F0B0FB019BC01A42
:105A9000FA239B009842E5D9CDE7C046FFFEFFFF01
:105AA0007FFEFFFF00040140FFFDFFFF7FFDFFFFC2
:105AB0000A23020953430F2210401818C0B270473E
:105AC00070B50C0001683F208B6A63600B695B0452
:105AD0005B0CA3600B680D490B40190C1E0ADDB26C
