:020000040800F2
:100000000050002055040008A5A10008A7A1000881
:1000100000000000000000000000000000000000E0
:10002000000000000000000000000000ABA100087C
:100030000000000000000000ADA10008AFA1000812
:10004000A5040008A5040008CFA10008A504000825
:10005000A5040008D7A10008E7A10008F9A100083D
:10006000A5040008A5040008A5040008C7A100080D
:10007000A5040008A5040008A5040008A5040008BC
:1000800071A30008A5040008A504000800000000F2
:1000900069A30008A5040008A5040008A504000839
:1000A000A5040008A5040008A5040008B7A10008DD
:1000B000A5040008BFA1000800000000A504000876
:1000C00002B4714649084900095C49008E4402BCEB
:1000D0007047C04603B47146490840004900095EB4
:1000E00049008E4403BC704703B471464908400080
:1000F0004900095A49008E4403BC7047002934D096
:100100000123002210B488422CD301242407A142E9
:1001100004D2814202D209011B01F8E7E400A142A6
:1001200004D2814202D249005B00F8E7884201D341
:10013000401A1A434C08A04202D3001B5C08224319
:100140008C08A04202D3001B9C082243CC08A0428A
:1001500002D3001BDC082243002803D01B0901D076
:100160000909E3E7100010BC704701B5002000F05A
:100170005FF802BD0029F8D003B5FFF7C1FF0EBC40
:100180004243891A1847C046002941D010B40400E0
:100190004C40A44601230022002900D549420028F2
:1001A00000D5404288422CD301242407A14204D226
:1001B000814202D209011B01F8E7E400A14204D206
:1001C000814202D249005B00F8E7884201D3401A1D
:1001D0001A434C08A04202D3001B5C0822438C083F
:1001E000A04202D3001B9C082243CC08A04202D3A9
:1001F000001BDC082243002803D01B0901D0090999
:10020000E3E710006446002C00D5404210BC704764
:1002100001B5002000F00CF802BDC0460029F7D05F
:1002200003B5FFF7B3FF0EBC4243891A1847C04617
:100230007047C0468446100062468C4619006346EB
:1002400000E0C0461FB513F0FBF9002801D40021DF
:10025000C8421FBD10B513F04DF94042013010BD2A
:1002600010B513F0EDF9002801DB002010BD0120CE
:1002700010BDC04610B513F0E3F9002801DD0020E1
:1002800010BD012010BDC04610B513F075F900284F
:1002900001DC002010BD012010BDC04610B513F0D8
:1002A0006BF9002801DA002010BD012010BDC04606
:1002B000844608006146FFE71FB512F074F8002875
:1002C00001D40021C8421FBD10B512F009F8404208
:1002D000013010BD10B512F066F8002801DB0020D7
:1002E00010BD012010BDC04610B512F05CF800280A
:1002F00001DD002010BD012010BDC04610B512F078
:1003000014F8002801DC002010BD012010BDC046FB
:1003100010B512F00AF8002801DA002010BD012003
:1003200010BDC046002B11D1002A0FD1002900D1E9
:10033000002802D00021C943080007B4024802A1E6
:100340004018029003BDC046E9FEFFFF03B46846B3
:1003500001B5029811F06CFE019B9E4602B00CBCE8
:100360007047C046D0400B00D1409C46203AD34055
:10037000184352426346934018437047914003002C
:1003800090409C46203A9340194352426346D340E2
:10039000194370471C2101231B04984201D3000C10
:1003A00010391B0A984201D3000A08391B099842E8
:1003B00001D30009043902A2105C40187047C046FE
:1003C000040302020101010100000000000000001E
:1003D00010B5002903D1FFF7DDFF203002E008004F
:1003E000FFF7D8FF10BDC04602780B78002A03D073
:1003F000013001319A42F7D0D01A70470023C25C15
:100400000133002AFBD1581E7047000010B5064C7E
:100410002378002B07D1054B002B02D0044800E0C5
:1004200000BF0123237010BDB001002000000000B8
:1004300098590108044B10B5002B03D00349044818
:1004400000E000BF10BDC04600000000B401002065
:10045000985901080D488546002103E00C4B5B5874
:10046000435004310B480C4B42189A42F6D30B4AC6
:1004700002E0002313600432094B9A42F9D303F0DF
:10048000D7F914F089F808F081FDFEE7005000204C
:100490007480010800000020B0010020B00100209D
:1004A000F4180020FEE70000F7B505000E000192E9
:1004B000EFF3108772B606F025FF0024019AA3001F
:1004C000E918A2420CDD0220F25806F049FF00288C
:1004D00001D10134F2E787F31088044810F0CEFF11
:1004E00006F022FF87F31088F7BDC046F4590108D3
:1004F0000268024B1A6018687047C046CC010020A1
:1005000070B50400EFF3108572B606F0FBFE200014
:1005100006F014FF002804D085F31088034810F07B
:10052000ADFF06F001FF85F3108870BD115A010878
:1005300070B5EFF3108572B606F0E4FE094C2000AA
:1005400006F0FCFE002804D085F31088064810F061
:1005500095FF064B04349C42F1D106F0E5FE85F38D
:10056000108870BD60000808115A0108D8000808FA
:10057000304B10B51A6D8022196D120492B00A43E7
:100580001A650021342205A813F0E6FF082304A809
:100590000493073B099304F097FA002801D007F071
:1005A0008DFD254C254B264A2360002320006360E7
:1005B000A360E260236105F0CDFF002801D007F0C1
:1005C0007DFD1421200006F04DF901230022019346
:1005D00069460B33200000920293039205F0FAFF64
:1005E000002801D007F06AFD0021200005F0E8FF97
:1005F000002801D007F062FD124A1368022BFCD1DB
:100600000021200005F0E1FF200005F0BFFF0E4BA8
:100610000E481A681A600E4B0360062343600D4BA8
:100620008360C36006F056FF002801D007F046FD46
:1006300012B010BD00100240DC0100200008014093
:10064000FFFF0000D0010020D40100201402002090
:1006500000300040FF0F0000002110B50D4806F0EB
:1006600055F80D490B685A1C0A600C4A5B00D052C1
:100670000B68012B0CD951881288094B891A18680C
:1006800089B2FFF73BFD074B18601A68D2001A6069
:1006900010BDC046DC010020D0010020D8010020A0
:1006A00038000020D401002010B5024806F052F8AE
:1006B00010BDC046DC01002010B5044806F036FF2E
:1006C000002801D007F0FAFC10BDC046140200203B
:1006D000094A0023110010B51468844202D89468B6
:1006E000844204D801330832152BF5D1FEE7DB0034
:1006F000C918087910BDC046D8740108054B5A794D
:10070000002A05D130331A78002A01D101321A703B
:100710007047C04660020020014B18607047C04619
:10072000C8020020014B18797047C04660020020C3
:1007300010B586B001241422002101A813F00CFF8B
:100740000323210001AA0C480493029407F0D4FC6F
:1007500021000022084807F041FD200010F0BEFCF7
:100760000023210001AA0448029307F0C5FC0620DB
:1007700010F0B4FC06B010BD0004005070B50500C8
:100780000C00A0208021160009020022C00507F0FD
:1007900025FD8020284307F091FFA619B44207D118
:1007A0008021A02001220902C00507F017FD70BDBD
:1007B000207807F083FF0134F0E707B56B46D97165
:1007C000073301221900FFF7D9FF07BD114B70B5A0
:1007D000114998600500FFF7CDFC104B0802C018C6
:1007E0000D49FFF78BFC0C4904002800FFF786FC3D
:1007F00000022418210C0620C9B2FFF7DEFF210AEF
:100800000720C9B2FFF7D9FF0820E1B2FFF7D5FFF3
:1008100070BDC04660020020093D0000841E00003B
:1008200070B505000C00A0208021160009020022EE
:10083000C00507F0D3FC7F20284007F03FFFA61932
:10084000B44207D18021A02001220902C00507F08F
:10085000C5FC70BD002007F031FF20700134EFE7C8
:1008600013B56B46DC1D01222100FFF7D9FF20786C
:1008700016BD000070B50920FFF7F2FF0500062045
:10088000FFF7EEFF04000720FFF7EAFF2404000251
:1008900004430820FFF7E4FF1A4B0443C0B2584357
:1008A000240A5C438030000A002104190920FFF764
:1008B00084FF3B20FFF7D4FF40210143C9B23B2016
:1008C000FFF77BFF20263B20FFF7CAFF3042FAD11B
:1008D0000D48FFF77BFF3B20FFF7C2FF402101439C
:1008E000C9B23B20FFF769FF20263B20FFF7B8FF86
:1008F0003042FAD129000920FFF75FFF2000FFF7FF
:1009000065FF70BD093D000000A1BC33F0B587B0A4
:100910000391002804D0012855D0002007B0F0BD75
:100920006A4C2720258CFFF79BFFF8239843013062
:10093000401913F013FCE31CDB7F0022002B3ED098
:10094000002312F089F8060030200F00FFF788FF1F
:10095000F923002298430023002800D05C4B30008C
:10096000390012F079F8060003980F0013F0F6FB37
:1009700002000B003000390012F06EF8631DDB7FBF
:100980000022002B1DD08023DB0512F065F8002229
:10099000504B12F0B9FE0600E0690F0013F006FCA0
:1009A00002000B003000390012F01EFB00224A4BFF
:1009B00012F0AAFE14F0A2FF11F01EFBAEE7444BAA
:1009C000BFE70023E1E7414D6B6C073B022B79D871
:1009D000424ADB00D218166857680120AC6CA04070
:1009E00013F0BCFB02000B003000390012F0FCFADF
:1009F00002000B000020364912F0F6FA2B0000909E
:100A000001914E33188813F0A9FB0022344B12F0E9
:100A100023F8009A019B12F077FE039B0490059146
:100A2000DA002B0052331B78A1001B015B1A002156
:100A3000503528781C33884200D01431D018401A21
:100A400013F0B4FB274B06001B780F005B00E01A85
:100A5000800013F0ABFB02000B003000390012F0F5
:100A6000C3FA14F035FE06000F00184D4D352878F6
:100A7000043013F073FB32003B0012F045FE0022FD
:100A8000002304000D00FFF7FFFB002801D1002424
:100A900000250022200029000E4B11F0DDFF009AF6
:100AA000019B12F031FE049A059B11F0D5FF002244
:100AB000094B12F029FE0C4A0C4B11F0CDFF14F03B
:100AC0008FFE79E70026002787E7C04660020020F6
:100AD0000000F03F0000204000408F40C07401083B
:100AE00000001140AC0200202B8716D9CEF7EF3F53
:100AF00010B5002804D001280AD00120404210BDC2
:100B00001120FFF7ADFE4008C0B2404200B2F6E748
:100B1000064B074A9B681B20934203D9FFF7A0FEB0
:100B20009D38F3E7FFF79CFEA438EFE76002002052
:100B300040DD4A1F70B504000B4D01202B681B6877
:100B400098472B6800201B6998472B6820005B6939
:100B500098470120FFF784FE072398430443E1B23E
:100B60000120FFF72AFE70BDC802002010B506481C
:100B700010F0B2FB054810F0AFFB0120FFF7DAFFE1
:100B80000022034B1A7110BD380200204C020020D5
:100B90006002002070B5041E11D10120FFF760FE35
:100BA000F82101400120FFF708FE064D01202B68C7
:100BB0001B6998472B6820001B68984770BDFFF79A
:100BC000B9FFFBE7C802002010B5094810F084FB0C
:100BD000084810F081FB0020FFF7DCFF064B0020E7
:100BE0001B681B6898470022044B1A7110BDC04651
:100BF000380200204C020020C802002060020020C1
:100C0000F8B50600774810F067FB774C6579002D42
:100C10002FD00027012D51D1230055331B784127B8
:100C20003320002B00D16CE0FFF71AFE3843C1B22D
:100C30003320FFF7C2FD19213B20FFF7BEFD636C97
:100C40003120082B00D9B4E0FFF70AFE7F210140D4
:100C50003120FFF7B2FD30200021FFF7AEFD606CC0
:100C6000082861D8FFF72CFA577D848B9299A0A0B1
:100C7000A000E31D4020DF7FFFF7F2FD03230C21DE
:100C8000184001434020FFF798FD4120FFF7E8FDA1
:100C90003F2149420143C9B24120FFF78EFD352073
:100CA000FFF7DEFD3F23184023003E3318701E215E
:100CB0000D20FFF782FD2586A5876587802200210C
:100CC0004A48520013F048FC01232371002E07D03C
:100CD000474D3100280010F02BFB280010F08EFA51
:100CE0006379002B00D075E00520FFF723FF414B0F
:100CF000E16A1C00180010F01BFB200010F07EFAC7
:100D0000F8BDFFF7ADFDB8430543E9B23320FFF767
:100D100054FD1D2190E72F204821FFF74EFDA068CC
:100D2000354BC018FFF752FD230056331F782300C0
:100D300053331B78002B44D01D211120FFF73DFDBC
:100D40004020FFF78DFD332101404020FFF735FDA6
:100D500000210F20FFF731FD00210D20FFF72DFDB1
:100D6000ACE72F204421FFF728FDA068234BD8E7EC
:100D70002F204421FFF721FDA068214BD1E72F2030
:100D80004421FFF71AFDA0681E4BCAE72F2044211B
:100D9000FFF713FDA0681C4BC3E72F204421FFF78A
:100DA0000CFDA068194BBCE740212F20FFF705FD83
:100DB000BAE7FFF755FD802149420143C9B231200E
:100DC000F4E71F211120FFF7F8FC4020FFF748FD52
:100DD0003F21B9E70520002F00D10620FFF7AAFE2A
:100DE0008EE7C0464C02002060020020CC020020AA
:100DF0003802002024020020821E0000B4280000D7
:100E0000043D00005E510000127A0000C6A20000FE
:100E100070B50400274810F05FFA274D2100280024
:100E200010F086FA254C6379002B0AD0012B23D0D1
:100E300002232800237110F0E1F90320FFF77AFE66
:100E400070BD4020FFF70CFD032310211840014323
:100E50004020FFF7B2FC4120FFF702FD3E21014098
:100E60004120FFF7AAFC3520FFF7FAFC3F2318408A
:100E700023003E331870DBE7230053331B78002B2D
:100E80000ED0F5211120FFF798FC4020FFF7E8FC79
:100E900033230100402019400143FFF78EFCC7E7D0
:100EA000F7211120FFF789FC4020FFF7D9FC3F23F1
:100EB000EFE7C046380200204C020020600200200C
:100EC00070B50B4C6379012B10D1FA211120FFF77B
:100ED00074FC4020FFF7C4FC0325A843C1B24020A6
:100EE000FFF76BFC07202571FFF724FE70BDC0469D
:100EF0006002002010B504000120FFF7B1FCC0091A
:100F0000C0B2164BA04201D1587110BD5C71012CCA
:100F100012D0FFF759FE0120FFF7A2FC7F2101400C
:100F20000120FFF74AFC00214020FFF746FC30215A
:100F30004120FFF742FCE8E7FFF746FE2000FFF7FD
:100F40008FFC802149420143C9B22000FFF735FCE4
:100F500000214020FFF731FC0021E9E7600200207A
:100F600070B51B4B1B4C186021001B4810F03EF95C
:100F700021001A4810F03AF92100194810F036F90A
:100F8000184D01202B681B689847FFF7D1FBFFF72E
:100F900071FC0020FFF7FEFD2B6813489B68984703
:100FA000124C134E2078FFF7A5FFA1786078033428
:100FB000FFF703FCB442F5D10020FFF79BFF0022AE
:100FC0000C4B1A712B685B689847023070BDC046A5
:100FD000CC030020211D00084C0200203802002014
:100FE00024020020C80200200000002088750108AB
:100FF000B875010860020020F8B50E0017001D004A
:101000000400FFF777FF3000FFF7E0FB0520FFF754
:1010100091FD012010F062F810F09BF906003000FD
:1010200010F09DF9A84204D30124FFF7CDFD200064
:10103000F8BD2000FFF75CFDB842F0DD0024F4E7C6
:1010400070B500240120FFF755FFFF211120FFF7A5
:10105000B4FB0520FFF76EFD25000126300010F0DF
:101060003DF82C20FFF7FCFB3040A0400134054345
:10107000202CF3D1FFF7A8FD280070BDF0B58DB08E
:10108000069312AB160004CB04001B880892019350
:1010900014AB1B880CAA059315AB1B780D000293AB
:1010A00016AB1B78039317AB1B78049318AB1B7814
:1010B0000A9319AB1B780B9319239B18DF7F1D2311
:1010C0009B18DB7F0993FFF715FF002C04D0012C40
:1010D00000D183E00DB0F0BDA94C089B029AA3613A
:1010E000E31CDA77039A231DDA77049A631DDA7713
:1010F000099AA31DDF77E31DDA77019BE66123845C
:101100003000656113F052F802000B0006000F007A
:1011100000209C4911F068FF00229B4B12F0F4FA6A
:1011200006900791059813F019F802000B00069835
:10113000079912F0E9FA0022944B12F0E5FA10F048
:101140005BFF32003B00E0629149002011F04CFF50
:1011500010F052FF84B2210A0220FFF72EFBE1B209
:101160000320FFF72AFB2800FFF7B2FA0100122044
:10117000FFF723FB0898FFF7ABFA01001320FFF7F6
:101180001CFB019B2520190AFFF717FB6B46262045
:101190001979FFF712FB029B0399002B00D1FF2165
:1011A0003220FFF70AFB3020FFF75AFB0121029B98
:1011B0005940049BC9011B0119436F231840014387
:1011C000C9B23020FFF7F9FA3120FFF749FB40217F
:1011D00001433120C9B2FFF7F0FA7BE7022D00D9B5
:1011E000FEE7674B06991A004D3211701A000199FB
:1011F0004E3211801A000299503211701A00039970
:10120000513211701A000499523211701A000A9961
:10121000533211701A000B99543211701A00553262
:1012200007351770099A5D649E64563334001A704E
:10123000062E00D382E00624072D00D083E0220092
:10124000002301210B3A91425B41DBB24C4A514FE2
:101250001D2008923B70FFF703FB069B1D205900E1
:10126000029B240119432B011943C9B2FFF7A5FAC8
:101270001E20FFF7F5FA059B9905049B890F9B003B
:1012800019432143082420400143C9B21E20FFF71F
:1012900094FA2620FFF7E4FA3978A043C900014305
:1012A000C9B22620FFF789FA6B461F20197DFFF788
:1012B00084FA019B2020190AFFF77FFA6B46212050
:1012C0001979FFF77AFA029B002B03D022200399A9
:1012D000FFF773FA089B53331B78002B0FD0442081
:1012E000FFF7BEFA802149420143C9B24420FFF70B
:1012F00064FA089B242054331978FFF75EFA092D0D
:101300002FD1089A244B9268022136209A4224D980
:10131000FFF753FA64213A20FFF74FFA07243120F0
:10132000062E21D8FFF79CFA0521A0430143C9B23C
:101330003120FFF742FA0C2137204CE70C2E00D861
:101340007AE70C2478E72A00083A53425A410B23E3
:10135000B3429B415B42134078E7FFF72EFA7F21AF
:10136000D9E703213620D7E7FFF77AFA0321A04314
:101370000143C9B23120FFF720FA0A21DCE7C04659
:10138000600200200000F03F0000204000408F403D
:1013900080847E41AC02002040DD4A1FF0B50D0084
:1013A00089B01F000EAB10CB06001B78039204938C
:1013B00010AB1B88009311AB1B78019312AB1B7809
:1013C000029313AB1B78059314AB1B78079315ABF3
:1013D0001B780693FFF78EFD874B28001B68DB68A0
:1013E0009847002E03D0012E5FD009B0F0BD834B8B
:1013F000039A01991A61009A1D731A84DA1CD17735
:1014000002995A1DD17706999A1DD177169ADC61F7
:101410009A6203985F6112F0C9FE0022784B11F0C6
:10142000E3FD10F0E9FD85B2290A0420FFF7C5F9B4
:101430000520E9B2FFF7C1F9200012F0B7FE020063
:101440000B0000206F4911F0CFFD10F0D5FD84B2E4
:10145000210A0220FFF7B1F90320E1B2FFF7ADF94D
:10146000009B2520190AFFF7A8F96B46262019785A
:10147000FFF7A3F93020FFF7F3F90121019B594051
:10148000029BC9011B0119436F2318400143C9B2D4
:101490003020FFF792F93120FFF7E2F940210143B4
:1014A0003120C9B2FFF789F99FE7574A534B1570AE
:1014B000022F00D9FEE71A0004994D3211701A006C
:1014C00000994E3211801A000199503211701A00A1
:1014D0000599533211701A000799543211701A008D
:1014E0000299523211701A00069955321170169AEB
:1014F000FE1D25005E649C649A65062C62D206255A
:10150000072E63D12A00002301210B3A91425B414F
:10151000DBB23E4A394F1370059B002B0FD044209D
:10152000FFF79EF9802149420143C9B24420FFF7E9
:1015300044F93B00543324201978FFF73EF91D206D
:10154000FFF78EF9049B36015900019B1D200B43C8
:1015500019003143C9B2FFF730F91E20FFF780F9B7
:10156000029B2D019B001D430B2318400543E9B24C
:101570001E20FFF722F92620FFF772F908234C37C7
:1015800039789843C9000143C9B22620FFF715F9FD
:10159000009B2020190AFFF710F96B4621201978CB
:1015A000FFF70BF907253120062C19D8FFF758F95A
:1015B0000521A8430143C9B23120FFF7FEF80C21F1
:1015C00037206FE70C2C9BD90C2599E73200083A9D
:1015D00053425A410B23A3429B415B42134098E77D
:1015E000FFF73EF90321A8430143C9B23120FFF7B9
:1015F000E4F80A21E4E7C046C802002060020020A7
:1016000080844E4080847E41A0020020AC020020F5
:1016100030B5FA248BB0A40054430D00FFF7D6F880
:1016200005230293962300205B0102002900089401
:10163000079006900590049003900190009303009A
:10164000FFF7ACFE3120FFF70BF94025A843C1B2EC
:101650003120FFF7B2F82800F021FFF7AEF8A02103
:101660004120FFF7AAF8084B210018001C000FF0DA
:101670005FFE0222054B20001A710FF0BFFD032010
:10168000FFF758FA0BB030BD4C020020600200207A
:1016900070B52B4C2179012902D0022948D070BDA8
:1016A0006379002B17D0012BF9D153342378022111
:1016B000002BF4D01220FFF780F8224B1B68002B80
:1016C000EDD05C69002CEAD01C20FFF7C9F83F235D
:1016D0001840A047E3E7230030331970258E012D11
:1016E000DDD119480FF0F8FD2300112031331D70B2
:1016F000FFF7B6F8230040083233404218701B2031
:10170000FFF7AEF805001C20FFF7AAF82D020F4BDB
:101710000543C0B258432D0A6B438030000AC018FD
:1017200060630C20FFF79CF8383440092070B6E75E
:101730006379012BB3D153342378002BAFD0B9E7B1
:1017400060020020CC03002024020020093D00009C
:1017500070B5124B5C79012C12D11220FFF780F882
:1017600005000F4E254020420BD005211220FFF727
:1017700024F83368002B03D09B692000002B0BD189
:1017800070BD04211220FFF718F83368002BF7D042
:101790009B69002BF4D028009847F1E760020020F5
:1017A000CC03002010B50A0001000020FEF7E6FF80
:1017B00010BD0000F7B56B46374CD9716579DF1D58
:1017C0000600002D35D00020012D52D123005533C5
:1017D0001B783320002B54D0FFF742F84123984365
:1017E000C1B23320FEF7E9FF19213B20FEF7E5FFE8
:1017F00023003D786433290022201D70FEF7DDFFB1
:1018000000210E20FEF7D9FF00210D20FEF7D5FFA5
:101810000120FFF725F8F823984304D1FFF7A6F934
:1018200001200FF05BFC30002900FFF7BBFFA06D2B
:101830001FE0A5873D78E31C6587DB7F002B1BD16C
:1018400001213800FFF7AEFF6B1E3F2B05D92A00A0
:10185000310012480FF0B7FD2025270030003F3738
:1018600029003D70FFF79EFF3B78A28FA06A9B186E
:10187000A387FFF7CDFAF7BD29003220FEF79DFFC1
:10188000E2E7FEF7EDFF412398430543E9B2332039
:10189000FEF793FF1D21A8E760020020CC02002084
:1018A00010B50A0001000020FEF7BAFF10BD0000CD
:1018B000F0B585B002ABDD1D0023B14C2B70237950
:1018C000012B04D0022B00D130E105B0F0BD6379CB
:1018D000002B24D0012BF8D140211220FEF76DFF00
:1018E0001220FEF7BDFF202128702B78A54EA64DB3
:1018F0000B4200D18FE01220FEF75FFF230056332A
:101900001B78002B00D1237130000FF0E5FC2B6811
:10191000002BDAD01B69002BD7D09847D5E7631D81
:10192000DB7F984A994E984F0192002B32D03F208E
:10193000FEF796FF28702B789B072BD40B213E20B7
:10194000FEF73BFF10213F20FEF737FF01980FF015
:10195000C3FCE31DDD7F002D0FD130000FF0BCFC78
:1019600025713B68002B03D01B69002B00D09847E2
:1019700000232386A3876387A7E70D20FEF770FF68
:1019800040210143C9B20D20FEF717FF30000FF0D0
:1019900035FCE6E7618FA08F0B007D4D034309D135
:1019A000E31CDB7F002B24D101217A48FFF778FF6D
:1019B000A08F618F091AC9B22818FFF771FF638FD2
:1019C0000198A3870FF088FCE31DDB7F002B15D166
:1019D000300023710FF080FC3B68002BC8D09E685C
:1019E000002EC5D0322200232800A256618FB047B6
:1019F000BEE73220FEF734FF6087D9E70D20FEF7FF
:101A00002FFF40210143C9B20D20FEF7D6FE300062
:101A10000FF0F4FBE0E71920FEF722FF270040B2A9
:101A200002306037801038701A20FEF719FF00234B
:101A30000100FB560AB21211A068574F92B2002B58
:101A400042DA9BB2B8423DD99D3BC818101800B28B
:101A500023006233188027001320FEF701FF64374C
:101A600038701020FEF7FCFE01000D20FEF7A5FEE9
:101A70003978474F3800FFF713FF230056331B78A0
:101A8000002B00D1237130000FF026FC2B68002BB7
:101A900000D11AE79D68002D00D116E7220023002F
:101AA00062320021525E210060331B7864315BB2E8
:101AB00038000978A847394D2B78002B0ED0002329
:101AC0002B7002E7A43BC0E7B84203D99D395118F7
:101AD00008B2BDE7A439521810B2B9E7304B1B78F1
:101AE000002B09D12F4E3378002B0FD12E480FF049
:101AF000C5FC0028FAD10FE00FF02BFC06003100E6
:101B00002A480FF0BBFC0028F9D1EBE728480FF07A
:101B1000B5FC0028FAD13070230062330021595EF1
:101B200024480FF0ABFC0028F6D1C8E722480FF09C
:101B3000D3FB6379012B03D108211220FEF73DFE70
:101B400000232371104B1B68002B00D1BDE61B68DE
:101B5000002B00D1B9E69847114B1B78002B08D019
:101B60000FF0F7FB0400210010480FF087FC00285D
:101B7000F9D112480FF082FC0028FAD1A5E6C04640
:101B80006002002038020020CC0300202402002044
:101B9000CC0200209A02002040DD4A1F3B130020A7
:101BA000B70B00203E130020415A010808740108B9
:101BB000335A01084A5A01084C020020555A0108BC
:101BC00070B5394C2579012D02D0022D56D070BD4B
:101BD0006379002B25D0012BF9D134480FF07CFB21
:101BE00080211220FEF7E9FD00232371304B1B6892
:101BF000002BECD0DB68002BE9D098472D4B1B78ED
:101C0000002B08D00FF0A5FB040021002A480FF09C
:101C100035FC0028F9D129480FF030FC0028FAD112
:101C2000D5E727480FF058FB638FA28F134307D1E6
:101C3000E31CDB7F002B17D129002248FFF730FE81
:101C400025003E35A28F638F1F48297810189B1AF4
:101C50008B420EDB0139C9B2FFF722FEA28F2B782F
:101C6000013A9B18A387B2E73220FEF7F9FD60879F
:101C7000E6E7D9B2FFF714FE638FF3E76379002B31
:101C8000A5D125003F35A28F638F0F482978101802
:101C90009B1A8B4204DDFFF785FD2B78A28FE0E7CE
:101CA000D9B2FFF77FFDE7E760020020380200208D
:101CB000CC030020B70B0020087401085E5A01080D
:101CC000240200209A020020CC02002070B50400FB
:101CD0000D00FFF70FF9002C02D0012C09D070BDC8
:101CE000054BDB7F002BFAD129003220FEF765FD82
:101CF000F5E729002320F9E76302002010B504006E
:101D00000120FFF7F7F8054B34211C70002C00D19F
:101D100012213920FEF751FD10BDC046BC02002043
:101D200070B52B4C2379012B02D0022B2DD070BD26
:101D30006379002B1BD10B213E202386A387638769
:101D4000FEF73BFD10213F20FEF737FDE31DDB7F53
:101D5000204D002B14D00D20FEF782FD40210143C1
:101D6000C9B20D20FEF729FD28000FF047FA1A4BE3
:101D70001B68002BDBD0DB68002BD8D09847D6E758
:101D8000280023710FF0A8FAF1E7FEF7D1FCFEF767
:101D900071FD0020FEF7FEFE104D114E2878FFF772
:101DA000A9F8A97868780335FEF707FDB542F5D1A3
:101DB0000020FFF79FF823005C331878FFF79EFFA1
:101DC00000232371044B1B68002BB0D05B68D3E762
:101DD0006002002024020020CC0300208875010846
:101DE000B8750108034B10B51B685B689847023053
:101DF00010BDC046C80200200023022130B587B0C4
:101E000005930D4B2024DA6A01250A43DA62DB6A66
:101E10000A480B400093009B112301A902930E3B3B
:101E200004930194039503F027FC2A002100034842
:101E300003F05EFD07B030BD00100240000400500A
:101E40007FB50C22002103A812F086FB0221094B6A
:101E50000948DA6A0A43DA62DB6A0B400093009BA6
:101E6000202301A901931D3B029303F005FC07B059
:101E700000BDC046001002400004005030B51025DF
:101E800087B02A000021040002A812F065FB01219E
:101E9000124BDA6A0A43DA62DB6A01950B4000935F
:101EA000009B022C16D0032C16D08C4201D10C4B77
:101EB0000293A02001A9C00503F0DEFB002C07D08F
:101EC00007200022022103F09BFB072003F0C0FB48
:101ED00007B030BD034BEBE7034BE9E700100240CE
:101EE00000003110000021100000111010B586B064
:101EF00010220021040002A812F02EFB0221134B35
:101F0000DA6A0A43DA62DB6A0B400093009B8023A3
:101F1000DB0101938C4215D0032C15D0012C01D18B
:101F20000B4B02930B4801A903F0A6FB002C07D032
:101F300007200022022103F063FB072003F088FB47
:101F400006B010BD044BECE7044BEAE7001002407A
:101F5000000031100004005000002110000011109A
:101F600010B586B010220021040002A812F0F4FA85
:101F70000221134BDA6A0A43DA62DB6A0B400093F0
:101F8000009B80231B0201938C4215D0032C15D09B
:101F9000012C01D10B4B02930B4801A903F06CFB00
:101FA000002C07D007200022022103F029FB072084
:101FB00003F04EFB06B010BD044BECE7044BEAE720
:101FC00000100240000031100004005000002110F9
:101FD000000011107FB51022002102A812F0BCFAF7
:101FE00001210A4BA020DA6AC0050A43DA62DB6AE3
:101FF00001AA0B4000938021009B0223490101911B
:10200000039306F079F807B000BDC0460010024007
:102010007FB50C22002103A812F09EFA01210A4B81
:10202000A020DA6AC0050A43DA62DB6A01AA0B4023
:1020300000938021009B032349010191029306F044
:102040005BF807B000BDC0460010024010B586B076
:102050000C22002103A812F07FFA02210C4B10245D
:10206000DA6A0C480A43DA62DB6A01940B40009397
:10207000009B012302935B1801A9049303F0FCFA6F
:1020800000222100034803F033FC06B010BDC04617
:1020900000100240000400507FB50C22002103A86C
:1020A00012F05AFA0221094B0948DA6A0A43DA6245
:1020B000DB6A0B400093009B102301A901930D3BA9
:1020C000029303F0D9FA07B000BDC04600100240E9
:1020D0000004005000B589B0012813D102211B4B28
:1020E0001B48DA6A0A43DA62DB6A0B400093009B02
:1020F00008230393002303A90493059303F0BCFA78
:1021000009B000BD022812D10121104BDA6A0A433E
:10211000DA62DB6A0B400193019B80239B00A020C5
:102120000393002303A904930593C005E6E703285E
:10213000E6D10121054BDA6A0A43DA62DB6A0B4019
:102140000293029B8023DB00E9E7C04600100240B7
:102150000004005000B589B0012812D102231C4AA6
:10216000D16A1943D162D26A04901A400092009A4F
:102170000822184803A90392CB6003F07DFA09B046
:1021800000BD022811D10123114AD16A1943D1623D
:10219000D26A03A91A400192019A80229200039206
:1021A0004B60C860A020C005E7E70328E7D1012302
:1021B000074AD16A1943D162D26A04931A40029243
:1021C000029A8022DB18D2000392069303A9E9E762
:1021D000001002400004005010B5040001280CD18A
:1021E000FFF7B8FF00220821144803F081FB22000A
:1021F0000821124803F07CFB10BD02280ED1FFF726
:10220000A9FF8021A02000228900C00503F070FBF7
:10221000802101228900A020C005EBE70328EBD133
:10222000FFF798FF8021A0200022C900C00503F01D
:102230005FFB80210122C900EDE7C0460004005089
:1022400070B5012822D1FFF745FF0025082133484A
:1022500003F048FB041E07D0C82D02D10124200042
:1022600070BD0135EDB2F1E7C82DF7D008212B483C
:1022700003F038FB002801D1F02C04D1F03C63427C
:102280005C41E4B2EBE70134E4B2EFE702281ED18F
:10229000FFF720FF00258021A0208900C00503F062
:1022A00021FB041E04D0C82DD8D00135EDB2F2E7D1
:1022B000C82DD3D08021A0208900C00503F012FBD7
:1022C0000028DBD1F02CD9D00134E4B2F2E70024AD
:1022D0000328C4D1FFF7FEFE8021A020C900C0055D
:1022E00003F000FB051E04D0C82CB7D00134E4B2C3
:1022F000F2E7C82CB2D08021A020C900C00503F0AD
:10230000F1FA002801D1F02D04D1F03D6B425D417E
:10231000ECB2A4E70135EDB2EDE7C0460004005091
:1023200010B50400012813D1FFF714FF0821002283
:10233000194803F0DDFA2000FFF7CCFE082116480B
:1023400003F0D0FA013843425841C3B2180010BD1F
:10235000022810D1FFF7FEFE8021A0208900002274
:10236000C00503F0C5FA2000FFF7B4FE8021890004
:10237000A020C005E4E70328E8D1FFF7EBFE8021A9
:10238000A020C9000022C00503F0B2FA2000FFF728
:10239000A1FE8021C900EBE70004005070B50024C5
:1023A000050026002800FFF7BBFFA04001340643CC
:1023B000F6B2082CF6D1300070BD0000080010B550
:1023C000012911D1FFF7C6FE0824002208211E486A
:1023D000013C03F08DFAE4B2012208211A4803F00F
:1023E00087FA002CF1D110BD022915D1FFF7B2FEFA
:1023F00008248021A02000228900C00503F078FA7B
:102400008021A020013C01228900C005E4B203F034
:102410006FFA002CEDD1E6E70329E4D1FFF79AFE2D
:1024200008248021A0200022C900C00503F060FA22
:102430008021A020013C0122C900C005E4B203F0C4
:1024400057FA002CEDD1CEE70004005010B504007F
:10245000FFF7C2FE2000FFF7F3FE2100CC20FFF7BC
:10246000ADFF10BD10B50400012803D12000FFF717
:10247000B3FE03E00228F9D00328F7D02000FFF7CD
:10248000DFFE10BD00B589B0012814D102211F4B19
:102490001F48DA6A0A43DA62DB6A0B400093009B4A
:1024A00008230393053B0493002303A9059303F03A
:1024B000E3F809B000BD022814D10121134BDA6AF8
:1024C0000A43DA62DB6A0B400193019B80239B0085
:1024D0000393FE3BFF3B0493002303A90593A02035
:1024E000C005E4E70328E4D10121084BDA6A0A4376
:1024F000DA62DB6A0B400293029B8023DB000393CA
:10250000002303A948608B60E9E7C0460010024041
:1025100000040050F0B50200411801260020732786
:102520008A4200D1F0BD0824157803006B40334087
:102530005B42BB4340085840013CC0B26D08002CD0
:10254000F3D10132ECE70000F0B5032300260400CC
:1025500087B0019300962000FFF784FF051E50D13D
:102560002000FFF773FF21004420FFF727FF2E48CC
:1025700007F0E2FB2000FFF769FF2100BE20FFF714
:102580001DFF2000FFF70AFF03AF78550135092D25
:10259000F7D108213800FFF7BDFF3B7A834234D1E1
:1025A0000023F85E002827DA404211F0D7FD002210
:1025B0001E4B11F0A9F811F05BFE1D49051CFDF73B
:1025C00083FE002803D00136F6B2022E1DD100266C
:1025D0002000FFF757FF002E23D11649281CFDF7D6
:1025E00079FE00281DD11449281CFDF787FE00281C
:1025F00017D1281C07B0F0BD11F0B0FD00220F4B21
:10260000D7E7009B0133DBB20093019B013BDBB2B8
:102610000193002B02D0009B032B9CD10126044D7B
:10262000D6E7074DE5E7C046020300000000B0BF53
:102630000000AA4200005CC20000FA420000B03F65
:1026400033CB4C4510B50E4B0E4C23600E4B200087
:1026500063600123E36000232361A361E3612362DC
:10266000F033A3600E33636104F03EFB002801D019
:1026700005F024FD0021200004F01EFE10BDC04620
:1026800000540040D0030020563EA110F0B5334B5B
:1026900087B01B7804ADFA2696272B700EF059FEF2
:1026A000B60003907F002E4C01232A0080212000D9
:1026B000009604F06FFB002815D101250EF049FEAD
:1026C000FA270390BF00264E05AC02232200812189
:1026D0003000009704F0EEFB00280FD1002D16D13A
:1026E000204807B0F0BD03980EF039FEB84203D27F
:1026F000200004F0DFFDD6E70025DFE703980EF0A9
:102700002EFEB842ECD2300004F0D4FDDBE7032308
:10271000208840BA80B2984311F020FD0022124B6D
:1027200010F0F2FF0022114B10F0EEFF0022104BD0
:1027300011F010FA11F09CFD0E49041CFDF7DEFDAE
:10274000002809D10021201CFDF7C4FD002801D17B
:10275000201CC6E70020C4E70648C2E76A5A010801
:10276000D003002000CCCC4500405F400000F03E8C
:10277000000018400000C842F0B5334B87B01B780A
:1027800004ADFA2696272B700EF0E3FDB6000390F9
:102790007F002E4C01232A0080212000009604F0A7
:1027A000F9FA002815D101250EF0D3FDFA27039080
:1027B000BF00264E05AC0223220081213000009785
:1027C00004F078FB00280FD1002D16D1204807B067
:1027D000F0BD03980EF0C3FDB84203D2200004F010
:1027E00069FDD6E70025DFE703980EF0B8FDB84293
:1027F000ECD2300004F05EFDDBE70323208840BA12
:1028000080B2984311F0AAFC124A134B10F07CFFDF
:102810000022124B10F078FF114A124B11F09AF976
:1028200011F026FD1049041CFDF768FD002809D1B0
:102830000E49201CFDF74EFD002801D1201CC6E7E3
:102840000A48C4E70848C2E76C5A0108D0030020D0
:1028500033CB4C45D7A3703D0AF765400000F03EEE
:10286000CDCCCCCCCC6C47400000FA42000020C25A
:1028700010B50E4B0E4C23600E4B200063600123FD
:10288000E36000232361A361E3612362F033A3606B
:102890000E33636104F028FA002801D005F00EFC25
:1028A0000021200004F008FD10BDC0460054004087
:1028B0001C040020563EA110F0B51F4B87B002AAA1
:1028C000039093810EF045FDFA26FA270500B60025
:1028D0007F001A4C022388212000009605AA04F0EC
:1028E00059FA002807D028000EF039FDB8421BD352
:1028F0000022134B1A700EF02CFDFA26050036014B
:10290000104B8921009320000623039A04F0D2FA89
:10291000002807D028000EF022FDB04208D3002284
:10292000074B1A7007B0F0BD200004F0C3FCD0E7DD
:10293000200004F0BFFCE3E72C0600001C0400208C
:1029400018000020B80B0000F8B50023304C314DC2
:1029500023706370A370E3702371637120000133EF
:102960002B70FFF7A9FF2B782B4E2C4F002B4AD052
:10297000607823780002184340BA80B211F0EEFB71
:102980000022274B10F0C0FE0022264B10F02CFB3B
:102990000022254B11F0DEF811F06AFC3060051CB6
:1029A0002079E3780002184340BA80B211F0D6FBD8
:1029B00000221E4B10F0A8FE00221A4B10F014FB50
:1029C00011F056FC1A49041CFDF798FC002810D1A0
:1029D0000021201CFDF77EFC002800D000243C6074
:1029E000144C281C211CFDF789FC002803D03460FE
:1029F00008E00F4CF3E7104C281C211CFDF76AFC83
:102A00000028F4D1F8BD0D4B33600D4B3B60F9E766
:102A100070040020180000206C04002068040020CE
:102A200000E06540E0FFEF40008046400000594074
:102A30000000C8420000FA42000020C233CB4C45DF
:102A400000CCCC4507B501210B4BA020DA6AC005AC
:102A50000A43DA62DB6A0B400193019B11230749A9
:102A60004B6000238B600333CB60C023DB000B6023
:102A700002F002FE07BDC04600100240B404002070
:102A8000012307B5094AA020D16AC0051943D162C4
:102A9000D26A07491A4001928B60C023019A03222F
:102AA000DB004A600B6002F0E7FD07BD001002404A
:102AB000A004002007B50121094BA020DA6AC00557
:102AC0000A43DA62DB6A0B400193019B002305494C
:102AD0004B608B608023DB000B6002F0CDFD07BDF7
:102AE000001002408C040020012307B50A4AA020F0
:102AF000D16AC0051943D162D26A08491A404B60B5
:102B000000238B600333CB6080230192DB00019AAA
:102B10000B6002F0B1FD07BD0010024078040020F8
:102B20000E2382B00193019B002B01D102B07047AC
:102B3000019B013BF6E710B5FFF7D6FF8021A020EF
:102B40000122C900C00502F0D3FE8021A02001228D
:102B50008900C00502F0CCFEFFF7E2FF8021A02033
:102B60000022C900C00502F0C3FEFFF7D9FF802193
:102B7000A02000228900C00502F0BAFEFFF7D0FFB6
:102B800010BD10B5FFF7B0FF8021A0200022890002
:102B9000C00502F0ADFE8021A0200022C900C005C2
:102BA00002F0A6FEFFF7BCFF8021A02001228900D1
:102BB000C00502F09DFE8021A0200122C900C005B1
:102BC00002F096FEFFF7ACFF10BD70B5FFF772FF85
:102BD0008021A0200122C900C00502F089FEFFF774
:102BE0009FFF8021A02001228900C00502F080FE05
:102BF000FB25FFF795FF8021A020C900C00502F04A
:102C000071FE041E09D102008021A0208900C005A8
:102C100002F06EFEFFF784FF06E0013DEDB2002DED
:102C2000E9D1FFF7AEFF0124200070BD70B50400AC
:102C3000FFF75AFF8021A02000228900C00502F082
:102C400057FE082563B20122002B00DB0022802101
:102C5000A020C900C00502F04BFEFFF761FF8021F4
:102C6000A02001228900C00502F042FEFFF758FFB4
:102C70008021A02000228900C00502F039FE8021B9
:102C8000A020013D0122C900C0056400EDB202F0A0
:102C90002FFEE4B2FFF744FF002DD3D170BD802199
:102CA000A02010B500228900C00502F021FEFFF728
:102CB0001BFF8021A0200022C900C00502F018FEE1
:102CC000FFF72EFF8021A02001228900C00502F01D
:102CD0000FFEFFF725FF8021A02000228900C005FC
:102CE00002F006FE10BD8021A02010B50022890050
:102CF000C00502F0FDFDFFF7F7FE8021A0200122B4
:102D0000C900C00502F0F4FDFFF70AFF8021A020F2
:102D100001228900C00502F0EBFDFFF701FF8021D1
:102D2000A02000228900C00502F0E2FD10BD70B5B0
:102D300005000826FFF7BEFE00248021A020002207
:102D40008900C00502F0D4FDFFF7EAFE8021A02033
:102D50008900C005012202F0CBFD8021A020640083
:102D6000C900C005E4B202F0BDFD002801D0013465
:102D7000E4B2013EF6B2FFF7D3FE002EDDD1002D06
:102D800003D1FFF7B0FF200070BDFFF788FFFAE71F
:102D9000F8B5060076000F001500FFF7CCFEF0B284
:102DA000FFF744FFFFF711FF041E03D0FFF7E9FE12
:102DB0002000F8BDFFF7BFFE01203043C0B2FFF78F
:102DC00035FF3C00FFF701FF002CEFD00020012C65
:102DD00000D00120FFF7ABFF013C2870E4B20135C1
:102DE000F2E7000070B5040064000D00FFF7A3FED9
:102DF000E0B2FFF71BFFFFF7E8FE002806D0012432
:102E0000FFF7BFFE064B1C70200070BD2800FFF7C7
:102E10000DFFFFF7DAFE041EF1D1FFF7B2FEF3E774
:102E2000C804002037B50A2006F086FF01212320C0
:102E3000FFF7D8FF20212320FFF7D4FF01ADC820E2
:102E400006F07AFF2A0002212320FFF7A1FF0721C5
:102E50002320FFF7C7FF00200A4C237883420BD1C1
:102E6000288840BA80B211F079F9074A074B10F070
:102E7000BBF80FF0C1F880B2002323700FF0AEFD55
:102E80003EBDC046C8040020333333333333F33FF1
:102E900010B50E4B0E4C23600E4B200063600123D7
:102EA000E36000232361A361E3612362F033A36045
:102EB0000E33636103F018FF002801D005F0FEF81F
:102EC0000021200004F0F8F910BDC0460054004075
:102ED000CC040020563EA110F0B5FA2700240126AC
:102EE0000D4B87B01B7805AD2B70BF000123C521AA
:102EF0001A000A4802970196009504F021F92B78F0
:102F0000013433402B70A4B2002B02D0044B9C42FE
:102F1000ECD1200007B0F0BD6E5A0108CC040020AF
:102F200010270000F0B589B06A46224B04AD1B782B
:102F300005AF2B70204BFA261B7801243B701F4BEA
:102F4000B6001B7813761E4B1B781377FFF7C4FF70
:102F50001C480095050023000222C421029601941A
:102F600004F038F8FFF7B8FF23000422C42128003A
:102F700002960194009704F02DF8FFF7ADFF06AB21
:102F80001222C4210093280023000296019404F029
:102F900021F8FFF7A1FF07AB1C22C42100932800F2
:102FA00023000296019404F015F8FFF795FF09B08D
:102FB000F0BDC046705A0108725A0108745A0108DF
:102FC0006F5A0108CC040020F0B5FA2501241E4BED
:102FD00089B01B7805AF3B70FFF77EFF1B4EAD003D
:102FE00023000022C421300002950194009703F0D1
:102FF000F1FFFFF771FF164B984222D806AF23006E
:103000000F22C521029530000194009704F098F832
:10301000029507AD23001022C521300001940095D0
:1030200004F08EF83A782B7812029B18FA229BB2A1
:1030300000201201934202D80A30584380B209B0EE
:10304000F0BD0448FBE7C046765A0108CC040020D6
:103050000E270000FFFF00001FB5164C05222100BF
:10306000684611F0BFFA611D062202A811F0BAFAF3
:1030700007F07AFA07F092FA0F4C01220F4920006C
:1030800000F046FEFA20800006F056FE6946052252
:103090000B4B200001F00AFA322006F04DFE06220A
:1030A000074B02A9200001F001FA322006F044FE8D
:1030B0001FBDC046B05901088809002083090020BF
:1030C000FFFF000037B5174B0193FFF7C5FF164C04
:1030D000164B0422200001A901F0E8F90122144D49
:1030E000144920002A7000F013FEFA20002440004A
:1030F00006F022FE2C7007F07BFA0F4B20001A78A6
:103100005A2A0DD15A78052A0AD19A78112A07D15C
:10311000DA78A24204D11879703843425841C0B2DB
:103120003EBDC0465A04116F88090020FFFF000011
:103130001F050020830900201805002037B507224D
:1031400000210400684611F007FA07F027FAFA2078
:10315000800006F0F1FDFA216D466846C90007F0CF
:10316000E1FA07F045FA68782B7829790343A878C3
:103170006A790343E87803430B43A8791343034375
:1031800004D1084823606060A36037BD0A23288803
:103190001202434352189BB22360D310013B68884C
:1031A000FF3BF0E7FEFF00007FB51022002102A8E0
:1031B00011F0D2F902210B4BA020DA6AC0050A43B4
:1031C000DA62DB6A01AA0B400093009B8021012395
:1031D0000901039302330191049304F08DFF07B0BA
:1031E00000BDC046001002407FB50C22002103A89C
:1031F00011F0B2F901230A4A0A48D16A1943D1628F
:103200008021D26A49011A400092009A029301AAD1
:1032100002330191049304F06FFF07B000BDC04674
:1032200000100240000400507FB50C22002103A8CA
:1032300011F092F902210A4BA020DA6AC0050A4374
:10324000DA62DB6A0B400093009B80231B01019331
:10325000032301A9029302F00FFA07B000BDC04694
:10326000001002407FB50C22002103A811F074F970
:103270000121094B0948DA6A0A43DA62DB6A0B402A
:103280000093009B80235B010193032301A9029318
:1032900002F0F2F907B000BD001002400004005037
:1032A00002230D4A10B5916B0C480B4393630C4BF2
:1032B0000C4A03601F2343600023C26083600361E4
:1032C00003F0CCF8002801D004F0F8FE002205211C
:1032D000102002F095F910BD0010024020050020DA
:1032E00000040040E7030000034B834203D1034A7C
:1032F00013880133138070472005002058050020F3
:103300000300F7B504000C33019300268021324DF1
:10331000324F2B6801225E62490131483E8002F043
:10332000E7FA012006F008FD802132002C4849010F
:1033300002F0DEFA0EF00DF806008021A02009014F
:10334000C00502F0CFFA002834D00026280003F090
:10335000A0F80DF0FEFF00908021A0200901C0051B
:1033600002F0C0FA00282ED1280003F09DF82B6847
:103370005B6A012E1DD0FA203A88800050439BB230
:10338000C01810F0EBFE174A174B10F0BDF90022E1
:10339000164B10F0B9F9164B002210F0B5F90EF0EB
:1033A0002BFE2080322006F0C7FC019B02349C4299
:1033B000ABD1F7BD30000DF0D2FFFA239B0098424D
:1033C000BBD30126C2E700980DF0C9FFFA239B008A
:1033D0009842C1D30126C7E72005002058050020E8
:1033E00000040050006F8104C58FA13F0000E03F42
:1033F00000002440020070B501260A3203003100AB
:103400001C885D88AC4202D900211D805C8002339B
:103410009342F5D1002902D1023A8242EED170BD29
:1034200010B50400FFF7E6FFE288638820899B1847
:10343000A2889B18C018800880B210BD1FB58021DB
:10344000A0200901C00502F04DFA041E13D10B4B58
:103450001B88002B0FD001A8FFF752FF01A8FFF730
:10346000DFFF0300B422F03B9BB25201934200D92C
:10347000200004B010BD0248FBE7C046B00B00209E
:10348000FFFF000010B586B00C22002103A811F048
:1034900063F801238024A0200C4A2401D16AC005CE
:1034A0001943D162D26A21001A400092009A029315
:1034B00001AA02330493019404F01EFEA02000220E
:1034C0002100C00502F014FA06B010BD0010024041
:1034D0007FB51022002102A811F03EF80221084B0E
:1034E0000848DA6A0A43DA62DB6A01AA0B408021E3
:1034F00000934901009B019104F0FEFD07B000BD5F
:1035000000100240000400507FB50C22002103A8E7
:1035100011F022F801210A4BA020DA6AC0050A4303
:10352000DA62DB6A0B400093009B80231B0101934E
:10353000032301A9029302F09FF807B000BDC04623
:10354000001002407FB50C22002103A811F004F8FE
:103550000221094B0948DA6A0A43DA62DB6A0B4046
:103560000093009B80235B010193032301A9029335
:1035700002F082F807B000BD0010024000040050C5
:103580008021A020002270B50901C00502F0B0F929
:1035900080211A48490102F0A5F9041EF8D1182526
:1035A0008021A02001220901C00502F0A1F980219B
:1035B000A02000220901C00502F09AF980210F48DD
:1035C000490102F08FF9013843425841013D64003E
:1035D000EDB22418002DE3D18021A02001220901A1
:1035E000C00502F085F98021A0202A000901C0054C
:1035F00002F07EF980200004604070BD000400509D
:1036000010B5FFF7BDFF014B186010BD5C05002031
:1036100010B5FFF7B5FF094A03001060084A002003
:103620001268934208D0981A0FF094F9054B196864
:103630000EF074FD0FF070F910BDC046600500205B
:103640005C0500201C00002000207047704701200E
:10365000704770B505000920FDF702F94D20FDF710
:10366000FFF80724112D12DD0443E4B22B1C142DA6
:1036700000DD1423053B1021494219430920C9B23A
:10368000FDF79BF821004D20FDF797F870BDA04392
:1036900004240443E4B22B1C022D00DA0223023B73
:1036A000E9E700007FB51422002101A810F054FFC3
:1036B0001148FDF731F8114B80210293022301AA32
:1036C00003930F4801338901049304F015FD802111
:1036D00001AA0C48C90004F00FFD802101AA094885
:1036E000090104F009FD8021064801AA490004F0FF
:1036F00003FD07B000BDC0462000002000001110EF
:1037000000080050000400507FB51422002101A8D9
:1037100010F022FF0E4B80210293022301AA0D48D4
:103720008901039304F0E8FC802101AA0A48C9003A
:1037300004F0E2FC802101AA0748090104F0DCFC46
:103740008021054801AA490004F0D6FC07B000BD5D
:10375000000011100008005000040050802110B536
:103760000368040000220D48890104F011FD802146
:10377000636800220A48C90004F00AFD8021A3689A
:1037800000220748090104F003FD80210022E368BC
:103790000348490004F0FCFC10BDC046000800507E
:1037A000000400507FB51422002101A810F0D4FEBF
:1037B00001238021A020029301AA02334900C00501
:1037C000049304F099FC8021A02000224900C00548
:1037D00004F004FD07B000BD0D4B10B51A7882420D
:1037E00004D01870002802D1FFF7DCFF10BDFFF7EE
:1037F000D9FF084C2378002BF8D08021A02001228B
:103800004900C00504F0EAFC00232370EEE7C0463F
:10381000640500203E070020012210B5032800D0D7
:1038200000228021A0204900C00504F0D7FC10BD73
:103830008022104B520019680A431A60DA680E4958
:103840000A40DA601A680D490A4001211A609A6834
:103850008A439A601A680A490A401A60DA68094974
:103860000A40DA6000221A618022074B12059A6032
:103870007047C046001002400C40FF88F6FFF6FE7D
:10388000FFFFFBFFFFFF02FF00ED00E0F7B51D00AB
:1038900004000E00019201F095FE019B0700002B31
:1038A00035D0226893683340B34235D16B1CF9D0D0
:1038B000002D0ED001F086FEC01BA842F1D908E011
:1038C0006B1C25D0002D04D001F07CFEC01BA8424B
:1038D0001DD9E02123685A688A435A601A68A039C2
:1038E0008A4380211A60A26A89018A4206D1196836
:1038F0000A480140196019680A431A60230001222E
:1039000051331A70002350340320237005E02268DD
:1039100093683340B342D3D10020FEBDFFDFFFFFE9
:103920007047000070B504000120002C37D025003E
:1039300051352B78DAB2002B05D12300503320000B
:103940001A70FFF7EDFF022340222B702168A06858
:103950000B6893430B606368A2690343E068034309
:103960002069034360690343E0690343206A03431A
:10397000A06A034380208000104003430B600423AF
:10398000120C1A40636A00201A43E36A4A600B6112
:10399000CB69034A1340CB61012360652B7070BD76
:1039A000FFF7FFFFF0B50400002085B002AEF08005
:1039B00026000192513630780A9D012804D03778CC
:1039C0000220222F00D08DE0002900D159E1019A78
:1039D000002A00D155E1002B00D152E127005037D9
:1039E0003878844662460220012A00D17AE0013804
:1039F00038703078012801D1313030700020606596
:103A0000A064E0648020019AE387A263A26AA3878E
:103A1000A386E386216323688001824206D1186869
:103A20009A4F3840186018681043186040201F688B
:103A3000074202D11F6838431860E7686068BC46D7
:103A400080273F01BC4500D07EE0002806D08227B9
:103A50007F00B8420AD1E08E012807D108880231E0
:103A6000D8602163E18E013989B2E186E18E0029B7
:103A700009D080277F01E38E002B35D16268002AB0
:103A80001CD12B000AE0802189018A4204D18022C6
:103A9000196852010A431A602B00002201212000FC
:103AA000FFF7F4FE00281CD12368DA68A36B1A80A4
:103AB0000233A363E38F013B9BB2E3878023A26AB7
:103AC0009B019A4200D0B8E02B0000220121200087
:103AD000FFF7DCFE002800D1A8E00223626D13434B
:103AE0006365032005B0F0BD2B00002202212000F9
:103AF000FFF7CCFE0028F4D1236B2268198802332B
:103B0000D1602363E38E013B9BB2E386E38E002BFF
:103B100007D18021A36A89018B4202D113683B43FC
:103B200013602B00002201212000FFF7AFFE0028C8
:103B3000D7D12368DA68A36B1A800233A363E38FBB
:103B4000013B9BB2E38796E7002806D082277F00DF
:103B5000B8420AD1E08E012807D1481C20630978B9
:103B6000D960E18E013989B2E186E18E002914D055
:103B700080277F01E38E002B26D16268002A9DD129
:103B80002B0001212000FFF781FE0028A9D1236826
:103B9000DA68A36B591CA16314E0802189018A4271
:103BA00004D18022196852010A431A602B000022B6
:103BB00001212000FFF76AFE002800D091E723686A
:103BC000DA68A36B1A7075E72B000022022120002F
:103BD000FFF75CFE002800D083E7236B5A1C2263AA
:103BE0001B782268D360E38E013B9BB2E386E38EB1
:103BF000002B07D18021A36A89018B4202D113686F
:103C00003B4313602B00002201212000FFF73EFE02
:103C1000002800D065E72368DA68A36B591CA1630C
:103C20001A70E38F013B9BB2E387A3E7236802AAE4
:103C3000DB689BB2D3801300DB882B00012280213C
:103C40002000FFF723FE031E02D02023626D46E70B
:103C50000122250032708022A16A920150359142E2
:103C600011D122689668F6060DD50220666D3043A4
:103C700060651068054C20401060106801431160B9
:103C80002B7001202EE700232B702BE7FFDFFFFFB7
:103C9000036806491A686A300A401A609A68233134
:103CA000FF318A439A60202303707047DFFEFFFFD5
:103CB00070B5050069352C7803000220202C25D131
:103CC0000138002922D0002A20D080209C684001A1
:103CD000844206D11869002803D101242000214222
:103CE00014D11C00683426780220012E0ED0D9642D
:103CF000190050310A804A8000202122D8662A709B
:103D000020701A68802311680B43136070BD000097
:103D1000F0B506006A36347803000220202C35D135
:103D20000138002932D0002A30D080209C68400120
:103D3000844206D11869002803D1012528002942B0
:103D400024D11D0068352F780220012F1ED059651F
:103D5000190058310A804A8080225201944218D1B9
:103D60001A69002A13D113491A005C32118000200D
:103D70002222D866327028701B68213A99680A435B
:103D80009A609022196852000A431A60F0BDFF2120
:103D9000EAE7002C04D11A69002AF8D07F21E3E772
:103DA000802252059442E2D11A69002AF6D03F21BE
:103DB000DAE7C046FF0100001300020070B5693267
:103DC000157804000220202D36D10138002933D087
:103DD000002B31D08020A5684001854206D12069A2
:103DE000002803D101252800294225D12600683664
:103DF00035780220012D1FD001383070200050305E
:103E0000E1640025038043802120E5661070206E68
:103E10000A4A8563C2620A4A02630A4A4263226806
:103E2000283201F00DFE4022280023681A62357006
:103E3000996892180A439A6070BDC046493E0008CE
:103E40007F3E0008FF3E000803001B6810B51A689B
:103E500020231100806A19401A420CD1030052330A
:103E60001980802103689A688A439A604022196801
:103E70000A431A6010BD06F0ABFAFBE7704710B5B5
:103E8000806AFFF7FBFF10BD010070B56A310A7848
:103E90000368222A2BD1020080245C3216888568B0
:103EA0005A6A6401436D3240A5421CD10469002C5A
:103EB00019D11A800233436502005A321388013B3C
:103EC0009BB21380002B0DD103680B4C1A68224063
:103ED0001A609A682334FF34A2439A6020230B703F
:103EE00006F09AFA70BD5C1C44651A70E4E708227B
:103EF00099690A439A61F5E7DFFEFFFF704710B545
:103F0000846A210069310B78212B0DD123689A68CE
:103F1000120609D522000020523210801A68C030E3
:103F200082431A6020230B7023006A331B78222BF4
:103F30000AD123689B685B0606D5230000225A330A
:103F400020001A80FFF7A4FE1023E26E2000134326
:103F5000E366FFF7D3FF10BDF8B503680400DA6924
:103F60001968100708D12020024262D0014260D0B7
:103F70002000FFF789FFF8BD9D68902701202E00E3
:103F80007F0006400F40374354D0024205D0CD0594
:103F900003D51862E56E2843E0660220024206D08F
:103FA000002E04D01862E56E00182843E066042055
:103FB000024206D0002E04D01862E56E0238284373
:103FC000E0660820024207D020250D40354303D08B
:103FD0001862E36E1843E066E36E002BCBD020231B
:103FE0001A4204D0194202D02000FFF74DFFE36EC1
:103FF00020001B0706D423689A68402315001D4043
:104000001A422BD0FFF744FE402123689A680A42E7
:1040100020D09A68606E8A439A6000281AD0334B89
:10402000836301F039FD0028A5D0606E836B98474B
:10403000A1E79D6880204003024213D06D0211D594
:10404000220018622023693213702000537002F09E
:10405000C7FC90E72000FFF751FF8CE7FFF74EFF0A
:10406000E56688E780252A422DD029422BD0220000
:1040700069321278212A00D07DE720005230028870
:10408000002A07D11A68AA431A60402219680A4315
:104090001A6070E78021A568E26C49018D420DD15C
:1040A000216900290AD111880232C905C90D996216
:1040B000E2640388013B9BB203805CE7511CE1642E
:1040C00012789A62F5E74020024200D153E701429C
:1040D00000D150E71A6882431A6023002022693316
:1040E00020001A7006F074F945E7C046F140000858
:1040F000806A0023020010B55A321380083A1380F8
:10410000FFF7FCFE10BD0000F8B5050003688268EB
:104110000069196802436869874E0243E8690243EF
:10412000864801400A431A605A6885490A40E9688E
:104130000A435A60A969B34201D02A6A11439A68B6
:10414000804802400A439A607F4A93421FD103226B
:104150007E4BDB6C13401C00022B06D008249342DC
:1041600003D0043C012B00D0033C022001F012F9E3
:104170002F680300B7426AD1082C00D9DAE020008A
:10418000FBF79EFF33D839D85FD8D8D86200704A81
:10419000934210D10C226D4B0224DB6C1340082B90
:1041A000E3D003D85A1E93419C00DEE710240C2B69
:1041B000DBD1083CD9E7674A00249342D5D0664A50
:1041C0009342D2D01034B342CFD1C02280215F4B72
:1041D0001201DB6C090113408B4204D0E2D99342F7
:1041E000C3D10824C1E70224BFE700F0D7FF0028AD
:1041F00009D100244AE0554B1868584BC006C01737
:104200001840574BC01803236A685343834200D9B0
:1042100090E01303834200D28CE00021070E0602D7
:10422000500836184F410B0030003900FCF77AF87F
:104230004C4BC2184C4B9A4200D97BE02B68D8609B
:10424000D7E700F0B1FED2E780200002DBE7802252
:10425000E969120291423ED1082C39D82000FBF7BF
:104260002FFF05171D372F37373732006968580081
:104270004B08C018FBF742FF80B20F2302009A439D
:10428000130000072A68400F0343D3602000F8BDE5
:1042900000F094FF696840004B0809E02B4B696807
:1042A0001A681023140048081C401A4206D02F4BED
:1042B000C018FBF723FF002480B2DEE72C4BD8E7C1
:1042C00000F072FEE6E7802369685B024808EFE7CA
:1042D00001240020D1E7082C2CD82000FBF7F0FEA9
:1042E0000510132A222A2A2A250000F057FF6968A0
:1042F0002C684B081818FBF701FF80B2E06078E7E4
:1043000000F05CFFF3E7114B69681B684808DB06A7
:1043100006D5184BC018FBF7F1FE80B2F86068E7CD
:104320000F4BF7E700F040FEE1E7802369681B02CE
:104330004808EFE70124A9E700480040F369FFEFD0
:10434000FFCFFFFFFFF4FFFF0038014000100240E5
:1043500000440040004C00400050004000E548FF91
:104360000024F40000FDFFFFFFFC0F0000127A00A4
:104370000048E80100093D00436A30B5DA0706D578
:104380000168284C4A682240846A22434A609A079E
:1043900006D50168244C4A682240C46A22434A6018
:1043A0005A0706D50168214C4A682240046B224313
:1043B0004A601A0706D501681D4C4A682240446BC2
:1043C00022434A60DA0606D501681A4C8A68224000
:1043D000846B22438A609A0606D50168164C8A6867
:1043E0002240C46B22438A605A0610D50168134DDF
:1043F0004A68046C2A4022434A6080225203944255
:1044000005D14A680E4C2240446C22434A601B0688
:1044100006D502680B4953680B40816C0B4353600F
:1044200030BDC046FFFFFDFFFFFFFEFFFFFFFBFFAC
:10443000FF7FFFFFFFEFFFFFFFDFFFFFFFFFEFFF4C
:10444000FFFF9FFFFFFFF7FFF8B504000D00170007
:104450001E002268D3692B405B1B59424B41BB4273
:1044600001D0002018E0069B0133F3D0069B002BFF
:1044700013D123680C491A6803200A401A609A680D
:10448000A331FF318A439A602200202369321370DE
:104490005370002368342370F8BD01F093F8069B35
:1044A000801B9842D5D9E4E75FFEFFFFF0B5070017
:1044B00085B0039369373B7804000D001600022095
:1044C000202B46D10138002943D0002A41D0802337
:1044D000A2685B019A4204D12369002B01D10142F9
:1044E00037D1230068331A780220012A31D0012203
:1044F0001A700023E36621333B7001F063F8230058
:1045000050331E805E808026029076012100523159
:104510000B889AB2002B0DD1039B40210093200001
:10452000029BFFF791FF002812D1202368343B70D3
:1045300020700EE00B880022013B9BB20B80039B96
:10454000802100932000029BFFF77EFF002802D00D
:10455000032005B0F0BDA3682268B34208D12369E7
:10456000002B05D12B880235DB05DB0D9362CDE7EF
:104570002B7801359362C9E773B500260400C6663F
:1045800001F020F8236805001B681B0717D4236877
:104590001B685B070AD580210F4B00220093200087
:1045A0002B00C903FFF750FF002813D1220020235E
:1045B0000020693268341370537020700BE0802142
:1045C000054B32000093890303002000FFF73CFFF6
:1045D0000028DCD0032076BDFFFFFF0170B5041E6C
:1045E00001D1012070BD050069352B78DAB2002BAE
:1045F00004D1030068331A7006F020F82423012147
:104600002B70226813688B431360636A002B02D0FF
:104610002000FFF7B1FE2000FFF776FD0128E0D073
:10462000236808495A6820000A402A215A609A687B
:104630008A439A60012219680A431A60FFF79CFFB7
:10464000D0E7C046FFB7FFFF084B13B50400084989
:104650001868FBF753FD44430194019B002B00D1E4
:1046600013BD019B013B0193F7E7C04638000020D2
:1046700040420F000321036870B59A6804000A40A5
:10468000012A04D11968114201D0002070BD996837
:10469000134A114209D01023A26D1343A3650123CD
:1046A000E26D13430120E365F0E701259A682800D5
:1046B0002A439A60FFF7C8FF00F084FF06002368D2
:1046C0001B682B42E1D100F07DFF801B0A28F6D940
:1046D0001023A26D1343A365E36D2B43E2E7C046AD
:1046E000170000807047000070B5041E16D0836D5F
:1046F000002B05D102005432C3651370FFF7F2FF9F
:10470000A36DDB0603D423689A68520708D51023EB
:10471000A26D54341343636000232370012070BDE5
:10472000A16D544A11400632FF320A43A2650322AA
:1047300099681140504A012902D11868084219D1DC
:1047400080256168ED0548004008A84203D080201C
:104750000006814272D118698000800818611869CA
:10476000014319611820D9688143D960D968A068CC
:104770000143D9601168414801401160A16B106884
:10478000490601431160802299685205114202D105
:1047900099680A439A60DA683949656B0A40DA60B9
:1047A000E268D868216A2A43024348030243206B27
:1047B00040000243A06980030243E069C003024352
:1047C000206902384542684180000243C220DA6015
:1047D000A26AFF30824204D0E56AD8682A430243C5
:1047E000DA60626A012A06D1002933D18022D968B1
:1047F00052020A43DA60216C1A69012932D1214838
:10480000A56C02401A61626C18692A43E56C2A4360
:1048100002431A611A691143196107215A6900207C
:104820008A435A615A69E16B0A435A610323E0657E
:10483000A26D9A43023B1343A36570E71869124DBA
:1048400080008008186110682840106010680143DB
:10485000116087E72021A06D0143A165E16D0A4346
:10486000E265C8E701210A42D7D01A698A431A6172
:10487000D3E7C046FDFEFFFF08270140FFFFFFFD15
:104880001902FEFF03FCFFFFFFFFC3FF036870B5C3
:104890009B68040002205B071AD4250054352B784E
:1048A000012B15D001232B70E369012B11D1A26DCF
:1048B0000B4B00201A4080235B0013431C22A3658E
:1048C000E065287023681A609968183A0A439A606C
:1048D00070BD2000FFF7CEFE0028E8D0F8E7C04604
:1048E000FEF0FFFFF8B5466904000D00082E0DD05C
:1048F00003680120DB680C26034207D02023A26D49
:1049000054341343636000232370F8BD00F05AFE53
:10491000070023681A68164222D08022A16D9200F7
:104920000A43A265C022D9681201114213D1226A3A
:10493000002A10D11A6812070DD59A68520722D49E
:104940000C215A688A435A60A16D154A11400432FD
:10495000FF320A43A265A269002A1DD00020D4E7D5
:104960006A1CD7D0002D08D10423A26D5434134300
:104970006360002303202370C7E700F023FEC01B01
:10498000A842C6D9F0E72022A16D0A43A265012200
:10499000E16D0A43E265DEE70C221A60DEE7C046FD
:1049A000FEFEFFFF0368186C70470000F8B50400B6
:1049B0005434227803000220012A0BD001382070E1
:1049C0001A6895686D0706D52022996D0A439A6585
:1049D00000232370F8BD802380260D68194F496895
:1049E0006803DB02400B2B40B602B94218D0916A33
:1049F00001439162002B08D08023134A1B041168E5
:104A00000A200B431360FFF71FFE354205D08023B9
:104A10000D4ADB0311680B43136000202070D9E7B7
:104A2000916A81439162002B04D0074A07491368B9
:104A30000B4013603542F0D0034A054913680B4020
:104A4000EAE7C0460110000008270140FFFF7FFF92
:104A5000FFFFBFFFF021174A0300D06830B50842BE
:104A60000AD00023012414490A68A2431A430A60A9
:104A700008682040584030BD8020C021956B40051B
:104A80000E4C490105420AD022681140C022520151
:104A90009142E6D10A4A9B185A425341E2E7956B8C
:104AA000284390632068074C0140906B204090633E
:104AB000ECE7C046001002400020024000700040B9
:104AC0000040FFFFFFFFFFEFF0B50368040085B073
:104AD000DB074DD423689B0700D59FE02368DB06E6
:104AE00034D50C23BC4DEA681A4200D0EAE02B68AA
:104AF0009B0502D5E369002B4FD0E0226B68666A04
:104B0000120213409E4200D8C9E03000FFF7A2FF16
:104B1000002842D16B68B14A134033436B606A6826
:104B2000236A12021B06120A13436B608023760B62
:104B300001361B02B340EA68A9481206120F825CD4
:104B4000A849D34003200B6005F0F4F823681B0745
:104B500000D5EEE023685B0700D511E123689B06D2
:104B600000D592E1A16A002900D0C2E100202BE02B
:104B70000C21994DEB680B40082B08D08023EA6884
:104B80005B020A408A420AD1EA681A4207D02B68BF
:104B90009B039FD56368002B9CD1012014E06268C1
:104BA0009A4213D12A6813432B6000F00BFD802733
:104BB0000600BF022B683B428CD100F003FD8A4BFC
:104BC000801B9842F6D9032005B0F0BDA021C90290
:104BD0008A4205D180222968D2020A432A60E1E78D
:104BE000296882480140296029680B400393039B90
:104BF0007F492B680B402B60002AD6D100F0E2FCE5
:104C000080270600BF022B683B4200D162E700F01C
:104C1000D9FC754B801B9842F5D9D4E70C226E4D18
:104C2000EB681340042B06D0EB681340934210D17D
:104C3000EB68DB030DD42B685B0702D5E368012B1F
:104C4000ABD16A6823696B491B020A4013436B604E
:104C500044E7E2682B68002A10D009218B431343F4
:104C60002B6000F0AFFC042706002B683B42E8D124
:104C700000F0A8FC801B0228F7D9A4E70122934387
:104C80002B6000F09FFC042706002B683B4200D1FC
:104C900024E700F097FC801B0228F6D993E76B68A5
:104CA0004E4A3000134033436B606A68236A120235
:104CB0001B06120A13436B60FFF7CCFE002800D1DD
:104CC00034E76AE7E369002B20D080232A685B0081
:104CD00013432B6000F076FC80270600BF002B6892
:104CE0003B420DD06B683D4A1340626A13436B60D0
:104CF0006A68236A12021B06120A13436B6025E7D7
:104D000000F060FC801B0228E9D95CE72B683A4A76
:104D1000802713402B6000F055FC0600BF002B6875
:104D20003B4200D112E700F04DFC801B0228F6D96F
:104D300049E762690123284D002A10D02A6D022715
:104D400013432B6500F03EFC06002B6D3B4200D068
:104D500000E700F037FC801B0228F6D933E72A6D04
:104D600002279A432A6500F02DFC06002B6D3B427A
:104D700000D1EFE600F026FC801B0228F6D922E7DE
:104D800080230021144D5B05AA6B00911A4204D1C7
:104D9000AA6B1343AB63012300938027174E7F0058
:104DA00033683B4208D08022A3685200934227D147
:104DB0002A6D13432B6548E033683B43336000F0B2
:104DC00001FC019033683B42EDD100F0FBFB019BFD
:104DD000C01A6428F6D9F6E600100240FF1FFFFF54
:104DE000317601083800002088130000FFFFFEFF25
:104DF000FFFFFBFFFFE0FFFFFFFEFFFF0070004033
:104E0000002B16D12B6D5F4A802713402B652B6D2D
:104E10005D4ABF0013402B6500F0D4FB06002B6DEC
:104E20003B421AD000F0CEFB584B801B9842F6D97B
:104E3000C9E6A021C9008B4218D18023296DDB006F
:104E40000B432B652B6D1A432A6500F0BBFB8027B3
:104E50000600BF002B6D3B4210D0009B012B00D001
:104E60007CE6AB6B4A4A1340AB6377E62B6D454A51
:104E700013402B652B6D444A13409BE700F0A2FBC7
:104E8000424B801B9842E5D99DE6A1690123414D23
:104E9000414A002918D0A96802271943A960696B03
:104EA0000B436B638023116A9B010B43136200F079
:104EB00089FB0600AB683B4200D053E600F082FB62
:104EC000801B0228F6D97EE6A96802279943A960CB
:104ED000136A32490B40136200F074FB0600AB68A2
:104EE0003B4200D13EE600F06DFB801B0228F6D964
:104EF00069E60C22274DEB681340934200D14CE643
:104F00002B68274A13402B6002292BD100F05AFB53
:104F100080270600BF042B683B421DD1216BE36A4A
:104F2000EA680B431F4980260A401343626BB604AC
:104F30001343EB6080232A685B0413432B6000F06B
:104F400041FB04002B68334200D00FE600F03AFB2F
:104F5000001B0228F6D936E600F034FB801B02283D
:104F6000D9D930E600F02EFB80260400B6042B6869
:104F7000334200D1FAE500F025FB001B0228F6D9E8
:104F800021E6C046FFFEFFFFFFFBFFFF8813000086
:104F9000FFFFFFEF0010024000000140FFDFFFFFB6
:104FA000FFFFFFFEFFFF02FF0C221A4B10B5D9686E
:104FB0000A40082A2CD00C2A0CD0042A20D11868C8
:104FC0001023184043425841134B40421840134BA2
:104FD000C01810BD12488A02120F825C0902D868FC
:104FE000890F0131C00304D50E485043FBF786F802
:104FF000EFE71B68DB0601D50848F6E70A48F4E747
:1050000080205B6800021B045B0F01339840E0E7DF
:105010000448DEE700100240001BB70000093D0015
:105020002076010800127A000024F400F7B501226E
:10503000534E05003368019113408B4228D32A68F0
:10504000930731D4D20737D40123326801991A402B
:105050008A4200D985E02A684A4C530700D588E087
:10506000120706D5E2682B694749DB000A40134363
:10507000E360FFF799FFE368444A1B061B0FD35C0C
:105080004349D8400860032004F054FE00200AE0A1
:105090003368019993430B43336033681340019A9B
:1050A0009342CCD00120FEBDF0203649CB6883432B
:1050B000A8680343CB60C5E7324C6A682368022ABC
:1050C00019D19B03EED50321E3688B431343E360BF
:1050D00000F078FA6B680700022B19D10C22E36804
:1050E0001340082BB0D000F06DFA2A4BC01B984239
:1050F000F4D90320D7E7032A02D19B01E3D4D1E7F7
:10510000012A02D15B07DED4CCE79B05DBD4C9E7DB
:10511000032B0CD10C22E3681340934200D193E798
:1051200000F050FA1B4BC01B9842F3D9E1E7012B6A
:1051300011D00C22E368134200D185E700F042FA57
:10514000144BC01B9842F4D9D3E700F03BFA114B43
:10515000C01B9842CDD80C22E3681340042BF4D135
:1051600072E732689A43326032681A4200D172E7BD
:1051700098E7E36808490B40E9680B43E3606FE791
:105180000020024000100240FFC7FFFF31760108F7
:105190003800002088130000FFF8FFFF044B054A89
:1051A000DB6805495B055B0FCB5C1068D840704736
:1051B000001002403800002029760108044B054AFF
:1051C000DB6805499B045B0FCB5C1068D8407047D7
:1051D0000010024038000020297601080368F7B566
:1051E00005009B063CD5802300215F4C5B05A26B2C
:1051F00000911A4204D1A26B1343A36301230093CD
:1052000080275A4E7F0033683B4264D0686822682A
:105210000100C0234240C0209B028003194002428B
:105220006AD1226D100018401A4200D06DE0696802
:10523000C0230A009B021A409A4207D123684C48B7
:105240000340C020800301400B432360236D1A43B9
:10525000009B2265012B03D1A36B464A1340A36335
:105260002B68DA0706D503203F49CA6C8243A86839
:105270000243CA649A0706D50C203B49CA6C824394
:10528000E8680243CA645A0706D537493A48CA6CE7
:10529000024028690243CA641A0706D532493748D2
:1052A000CA6C024068690243CA64DA0506D52E4911
:1052B0003348CA6C0240A8690243CA645A0606D53C
:1052C00029493048CA6C0240286A0243CA641B0656
:1052D00042D400200FE033683B43336000F072F9A2
:1052E000019033683B4291D100F06CF9019BC01AE8
:1052F0006428F6D90320FEBD994200D091E72268C8
:105300000120920300D48CE7F5E7884200D18EE7B4
:105310002B689B0600D48AE78021236D206D09034A
:1053200001432165216D164A17481A400140216545
:105330002265DB0500D47AE700F044F980270600F7
:10534000BF00236D3B4200D071E700F03BF90F4BEB
:10535000801B9842F5D9CDE7034A0D49D36C0B4029
:10536000E9690B43D364B4E70010024000700040C9
:10537000FFFFCFFFFFFFFFEFFFF3FFFFFFCFFFFFB9
:10538000FFFFFCFFFFFFFFFBFFFFF7FF881300009D
:10539000FFFFF3FF030010B5102800D1C5E00AD8C5
:1053A000013B0020072B42D81800FAF789FE6D83D5
:1053B000BC96BCBCBCAA40283AD080225200904285
:1053C00000D1BCE00020202B31D1C0248021654ACF
:1053D000A402106D136D490223408B4203D1800556
:1053E000C00FC00323E0802189028B4204D18007D3
:1053F0005D4BC01718401AE00020A34217D1136874
:105400000B4214D0C023106880229B0318409203E3
:10541000904200D1A2E0984200D1A1E0534BC018C5
:1054200043425841524B40421840524BC01810BDA5
:105430004C4B8022D96CD2040800104011421ED17E
:105440001A689201F3D5DA684B48D9689202120FB4
:10545000805C0902DA68890F0131D2030DD4102271
:105460001B6813405A425341444A5B421340414A2D
:105470009B185843FAF742FED9E7414BF9E7986881
:10548000404B8007C017B5E7364B0321D86C0200AC
:105490000A40084202D1FFF791FEC8E7022A04D170
:1054A00018684007384BC017A4E7012A13D1FFF74B
:1054B0007BFDBCE72B4B0C21D86C02000A40084254
:1054C00002D1FFF76BFEB2E7082AE9D0042AEED03A
:1054D00000200C2AABD1186D81E7224BC022D86C7A
:1054E0001201010011401042EBD0802000018142E6
:1054F000D6D08020C0008142D9D00020914296D1E0
:10550000E9E7184AC021D06C890103000B4008422A
:10551000D7D0802189018B4201D11068C1E7802258
:1055200052019342C3D0002081E70E4B9A6B802337
:105530001000DB0318401A4200D178E7C1E7094A9E
:10554000C021D06C890203000B400842B9D08021F1
:1055500089028B42E1D080225202E2E70B4866E7E3
:105560000B4864E700100240889000000000F0FF44
:10557000807BE1FF00093D0020760108001BB70099
:1055800000127A00006CDC020024F40040420F009C
:1055900020A107000223064A10B5116803200B431F
:1055A000136004F0C7FB04F0CDFB002010BDC04623
:1055B00000200240024A1368013313607047C0465E
:1055C00068050020014B18687047C0466805002038
:1055D0000121024A53688B435360704700580140D1
:1055E0000221024A53688B435360704700580140C0
:1055F0000421024A53688B435360704700580140AE
:1056000010B5FF24032322000340DB009A408901E8
:105610002140D243994000280BDA0F230340083B76
:1056200009489B089B001B18D86902400A43DA61AD
:1056300010BD064B80088000C018C0239B00C458D2
:1056400022400A43C250F3E700ED00E000E100E031
:105650001F2318401E3B8340014A13607047C04619
:1056600000E100E01F2318401E3B8340014AD3673E
:105670007047C04604E100E00023F0B585B00A6839
:105680001400DC4001D105B0F0BD012714009F409B
:105690003C4001943A4200D195E04A681600944695
:1056A00010229643022E13D107240F251C40A4007C
:1056B000A540DA08920082180292126A039515003A
:1056C000039A95432A000D69A5401543029A156275
:1056D00003225D00AA40013ED243012E0CD8CC68C3
:1056E0008668AC40164034438460644624099C407C
:1056F0004668BE4334434460644603273C40AC40A4
:105700000668164034430460C46814408A68AA409E
:1057100022438024C26062466405224253D00125A0
:105720002A4C626B2A4362633D00294A9C08A4000C
:10573000A4180F221D40AD00AA40A027A668FF05AF
:1057400096430022B84214D0224F0132B84210D002
:10575000214F0132B8420CD0204F0132B84208D05C
:105760001F4F0132B84204D01E4A8218571EBA4158
:105770000532AA4067463243A2601B4A019C166864
:10578000019DE4433543FF0301D4350025406746BE
:1057900015605668019D3543BF0301D4350025408F
:1057A000674655609668019D3543FF0201D4350078
:1057B000254067469560D568019E2E43BF0201D4FF
:1057C00025402E00D660013359E7C0460010024044
:1057D000000001400004005000080050000C005080
:1057E0000010005000E4FFAF00040140F7B50022B4
:1057F0000091009BD34000D1F7BD01259540009C4E
:10580000009B2C402B425CD0032651008E40036845
:10581000310033430360D3089B00C3181E6A072777
:10582000B4460F261740BF00BE4037006646BE4351
:105830001E6283680F278B4383604368AB434360DA
:10584000C36803258B43C36091081F4B8900C918A7
:10585000A0231540AD00DB05AF409C468E680023B9
:105860003E400196604518D0184B9C460123604588
:1058700013D0174B9C46022360450ED0154B9C4617
:105880000323604509D0144B9C460423604504D093
:10589000124BC3185E1EB3410533AB40019DAB42B2
:1058A0000FD18B68BB438B600D4B1968A143196006
:1058B0005968A14359609968A1439960D968A14387
:1058C000D960013295E7C046000001400004005055
:1058D00000080050000C00500010005000E4FFAF22
:1058E0000004014000690840431E9841C0B270475F
:1058F000002A01D0816170478162FCE7044B10B53A
:105900005A69104202D0586104F066FA10BDC046D0
:1059100000040140030030B50120002B2AD0981D5F
:10592000C27FD1B2002A01D15A1DD1770222C2779B
:105930001968354A0C68DD6814409A682A431D6965
:105940002A435D692A439D692A43DD692A431D6A0A
:105950002A4322430A602D4A91420CD10F242C4A3B
:105960001168A143116011685B680B431360012348
:10597000C377002030BD274A914208D1F024244A41
:105980001168A14311605B6811681B01EDE7224AB1
:10599000914208D11E4A214C1168214011605B6878
:1059A00011681B02E1E71E4A914208D1184A1D4CBA
:1059B0001168214011605B6811681B03D5E71A4A22
:1059C000914208D1124A194C1168214011605B685C
:1059D00011681B04C9E7164A914208D10C4A154CBC
:1059E0001168214011605B6811681B05BDE7124A10
:1059F0009142BCD1064A114C1168214011605B688C
:105A000011681B06B1E7C0460FC0FFFF0800024047
:105A1000A80002401C00024030000240FFF0FFFFDF
:105A200044000240FF0FFFFF58000240FFFFF0FF5D
:105A30006C000240FFFF0FFF80000240FFFFFFF0FD
:105A4000F0B50224471DFE7F05002000012E1ED068
:105A50000126A81DFE77C4772C682068B04320601B
:105A60006360AB68102B13D1A260E160022322684F
:105A70000020134323600423226813432360082378
:105A80002268134323600123226813432360F0BD7F
:105A9000A160E260EAE7000010B5841DE37F022BFD
:105AA00003D00423C363012010BD0E2102681368D4
:105AB0008B431360012311689943116016498A4290
:105AC00011D016490F338A420DD0154B9A4217D088
:105AD000144B9A4217D0144B9A4217D0134B9A4248
